:100000000C942C010C944B010C944B010C944B015F
:100010000C944B010C944B010C944B010C944B0130
:100020000C944B010C944B010C944B010C944B0120
:100030000C944B010C944B010C944B010C944B0110
:100040000C944B010C944B010C944B010C944B0100
:100050000C944B010C944B010C944B010C944B01F0
:100060000C944B010C94782F0C944B010C944B0185
:100070000C944B010C946F020C944B010C944B01AB
:100080000C944B010C944B010C944B010C944B01C0
:100090000C94CF2F0C944B010C944B010C94CC6D11
:1000A0000C944B010C944B010C944B010C944B01A0
:1000B0000C944B010C944B010C944B010C94F442A6
:1000C0000C944B010C944B010C944B010C944B0180
:1000D0000C944B010C944B010C944B010C944B0170
:1000E0000C944B010C944B010C944B010C94233C4D
:1000F0000C94EE3D0C944B010C944B010C94E53B9D
:100100000C944B010C944B010C944B010C944B013F
:100110000C944B010C944B010C944B010C944B012F
:100120002083C0826A82008480835684648216821F
:10013000C781BE81B8817A8305A84CCDB2D44EB9AF
:100140003836A9020C50B9918688083CA6AAAA2A7A
:10015000BE000000803F6E616E00696E6600004068
:100160007A10F35A00A0724E18090010A5D4E800C6
:1001700000E87648170000E40B54020000CA9A3BDE
:10018000000000E1F5050000809698000000404264
:100190000F000000A08601000000102700000000F2
:1001A000E803000000006400000000000A000000F6
:1001B00000000100000000002C76D888DC674F08A2
:1001C00023DFC1DFAE59E1B1B796E5E3E453C63AA8
:1001D000E651997696E8E6C28426EB898C9B62ED1F
:1001E000407C6FFCEFBC9C9F40F2BAA56FA5F490D9
:1001F000055A2AF75C936B6CF9676DC11BFCE0E450
:100200000D47FEF520E6B500D0ED902E03009435A5
:1002100077050080841E080000204E0A000000C8F8
:100220000C333333330F986E12831141EF8D211449
:10023000893BE65516CFFEE6DB18D1844B381BF719
:100240007C1D901DA4BBE424203284725E228100B8
:10025000C9F124ECA1E53D2711241FBECFEFD1E465
:10026000DEBFCDBF1EE0A0E0B2E0EEEAFBE501E0BC
:100270000BBF02C007900D92AE32B107D9F72DE146
:10028000AEE2BEE001C01D92A63EB207E1F70E94B9
:10029000C2070C94D5AD0C94000008950895E82F82
:1002A000F0E0E05CFE4F60830895E82FF0E0E05C52
:1002B000FE4F80810895E82FF0E0E05CFE4F8081E2
:1002C0006823862F90E002C0959587954A95E2F7BE
:1002D0000895E82FF0E0E05CFE4F862F8095908136
:1002E0008923042E01C0220F0A94EAF72623822BC9
:1002F0008083089587FD8FE780938001482F50E029
:1003000081E891E00C94C2ACFF920F931F93CF93BE
:10031000DF938A01F0907B01F61608F46F2DC62F4B
:10032000D0E0AE0160E871E00E94C2ACC058DE4F80
:100330008881F80180838F2DDF91CF911F910F91DC
:10034000FF900895FF920F931F93CF93DF938C013B
:10035000F62EEA01209751F047E060E886E00E941F
:100360005B0191E0813009F090E0988340E050E03B
:100370006F2DC801DF91CF911F910F91FF900C94C9
:100380008401DF92EF92FF920F931F93CF93DF933D
:100390008C01D62E7A01E901209751F047E060E800
:1003A00086E00E945B0191E0813009F090E0988343
:1003B000A7016D2DC801DF91CF911F910F91FF9083
:1003C000EF90DF900C94840180917B010895FA01F5
:1003D000282F30E0D901A60FB11DA038B10514F0C7
:1003E0006FE7681B462F50E0BF01C90180589E4F40
:1003F0000C94C2AC782FCA01272F30E0F901E60F28
:10040000F11DE038F10514F06FE7671B462F50E04F
:10041000B90160587E4F0C94C2AC6830710540F44D
:10042000FB01EE0FFF1FE80FF91F808191810895F6
:1004300080E090E00895CF93DF93EC016830710580
:10044000D0F4FB01EE0FFF1FE80FF91F60817181EF
:1004500080E090E00E9424A8288939894A895B8934
:100460000E9436A920E030E040E85AE30E9436A915
:10047000DF91CF91089560E070E0CB01DF91CF91E3
:1004800008958091420E882319F08EE29EE008952F
:100490000E944C330E949332FC0180818230D1F063
:1004A0008DEC9CECACECBFE320EC20937C00109234
:1004B0007B002FEE20937A0080933E0E90933F0EA8
:1004C000A093400EB093410E81E08093420E8EE2E5
:1004D0009EE0089580E090E0A0EABFE3E5CF1F92A0
:1004E0000F920FB60F9211240BB60F921F932F93FA
:1004F0003F934F935F936F937F938F939F93AF93AC
:10050000BF93CF93DF93EF93FF9380910B028F5FA5
:1005100080930B02833000F110920B02D09178008F
:1005200010917900C0910A020E944102C83078F10E
:1005300080910A028F5F883038F580930A0280919B
:100540007C00807E80937C0080917C0090910A02E8
:10055000892B80937C0002C0882301F3FF91EF91E7
:10056000DF91CF91BF91AF919F918F917F916F91CB
:100570005F914F913F912F911F910F900BBE0F9064
:100580000FBE0F901F90189510920A02D8CFEC2F33
:10059000F0E0EE0FFF1FE80FF91F13708D2F90E0B2
:1005A000912B9183808380910A028F5F883060F75E
:1005B000C4CFDA011496ED91FC911597309739F07C
:1005C000AB01BC0116968D919C91179709940895E3
:1005D0006115710529F021E030E0DB012D933C939A
:1005E000DA01ED91FC911197309731F0682F129656
:1005F0008D919C911397099580E090E00895DC011E
:10060000ED91FC910480F581E02D09940C94BA4D94
:100610000C94154D0C947A54CF93DF9300D0CDB742
:10062000DEB79E012F5F3F4F08960E947F900F908C
:100630000F90DF91CF9108950F931F9300E010E08A
:1006400020E030E040E050E008960E94DB8C01960C
:1006500019F01F910F9108950E94DAAB2F923F92EB
:100660004F925F926F927F928F929F92AF92BF92C2
:10067000CF92DF92EF92FF920F931F93CF93DF936E
:10068000CDB7DEB7C657D6400FB6F894DEBF0FBE63
:10069000CDBF6C015A01CE018B5C9C4F0E94C2AC55
:1006A000CB5CDB4FA882C553D440D601CD90DC9003
:1006B00081E091E0FE01EB5CFC4FDE01AC5CBD4FE4
:1006C00001900D920197E1F70E9423919501332744
:1006D0008E010F58194FAE014C5C5D4FBC01CE012D
:1006E0008D519A4F0E947391CF58D94F888199812B
:1006F000C157D640892B09F10E94FE314FEF50E0DF
:1007000060E00E946931CA58D94F0FB6F894DEBF35
:100710000FBECDBFDF91CF911F910F91FF90EF9052
:10072000DF90CF90BF90AF909F908F907F906F9011
:100730005F904F903F902F9008958CE8FE01ED510F
:10074000FA4FDE01A95ABA4F01900D928A95E1F74E
:10075000FE0131964F0182E391E0DF01FC011D9221
:100760003197E9F721E0C855DF4F2883C85AD040B8
:10077000C95ADA4F88819981AA81BB81C755D54072
:10078000C755DF4F88839983AA83BB83C95AD0405A
:100790002B83C55ADA4F88819981CB55D54081305A
:1007A000910509F480C08230910509F441C0892B7C
:1007B00009F487C082E090E09D838C832F8F83E0D3
:1007C00090E099A388A3FE01E159F94F5F019E01D2
:1007D0002D5C3E4F39010E94269175018E010D5C02
:1007E0001D4F20E031E0A301BC01C4010E9429910A
:1007F000D5018D919C91892B09F07ECFCD5CDD4F89
:100800004881C353D24050E0D601ED91FC9130971E
:1008100009F479CFB301D60112968D919C9113976B
:100820000995F50180819181892B09F46CCF64CF02
:10083000C35ADA4F3881CD55D540332309F4BCCFA4
:10084000C25ADA4F88819981AA81BB81CE55D540A1
:10085000803C33E2930733E7A30730EDB30709F495
:1008600052C0833044E194074CEAA4074DEDB4072D
:1008700009F429C18D399841A94FBF4B09F46AC0C9
:1008800034E020E0FE01E159F94F5F01AE014D5C1B
:100890005E4F3A0182E090E09D838C8381E08F8FF0
:1008A00038A329A398CF82E090E09D838C832F8F7B
:1008B000CE018159994F5C01DE01AD5CBE4F3D0117
:1008C0008ACF2E8383E090E0A0E0B0E08B879C8706
:1008D000AD87BE8781E090E0A0E0B0E08F8B988F7D
:1008E000A98FBA8F82E090E0A0E0B0E08B8F9C8F60
:1008F000AD8FBE8F9E012159394F5901AE014D5C1C
:100900005E4F3A0168CFCE59DA4F4880C256D54083
:10091000512C0E947FA65E01F1E9AF1AF9EFBF0AE0
:100920003E012DEC621A2EEF720A8501920147E515
:1009300055E04C0F5D1F445F5F4FBC01C3010E9437
:100940007391D5018D919C91009709F4FBC0382FCC
:10095000292FA0CFCE59DA4F4880C256D540512C0E
:100960000E947CA65E01F1E9AF1AF9EFBF0A3E01D1
:100970002DEC621A2EEF720A8501920147E555E0CF
:100980004C0F5D1F445F5F4FBC01C3010E94739118
:10099000D5018D919C910097D1F61E01BAEC2B1ACE
:1009A000BBEF3B0A83E9F301D10101900D928A95D7
:1009B000E1F780911602882309F442C0F101858590
:1009C0008823F1F14685578560897189F601848114
:1009D0009581A681B781481759076A077B0781F17E
:1009E0004483558366837783CD58D94F4883C35753
:1009F000D640CC58D94F5883C457D640CB58D94F3E
:100A00006883C557D640CA58D94F7883C657D64051
:100A10000E94CB42CD58D94F4881C357D640CC58BD
:100A2000D94F5881C457D640CB58D94F6881C55744
:100A3000D640CA58D94F7881C657D6400E942E4218
:100A4000F10181859285A385B48580389105A10542
:100A5000B10508F4F5C080E090E0DC0123E030E06F
:100A6000FE01E753FB4F2F01F20131832083828384
:100A70009383A483B5830E9485A675018E01095DC9
:100A80001F4F20E830E0AE01485D5F4FBC01C2015E
:100A90000E942991D5018D919C91009709F057CF23
:100AA00083E090E09D838C8381E08AA3C25ADA4F71
:100AB00088819981AA81BB81CE55D5408BA39CA307
:100AC000ADA3BEA388CECE59DA4F4880C256D540DA
:100AD000512C0E9479A65E01A1E9AA1AA9EFBA0ACF
:100AE0003E01BDEC6B1ABEEF7B0A8501920147E522
:100AF00055E04C0F5D1F445F5F4FBC01C3010E9476
:100B00007391F50180819181009709F020CF8CE0ED
:100B1000EBE3F4E0DE01AA5CBB4F01900D928A95F5
:100B2000E1F70E9482A675010854164020E830E0E3
:100B3000AE01485D5F4FBC01CE018A5C9B4F0E94B5
:100B40002991A8CF2E01B7E34B1ABBEF5B0A8EE8C1
:100B5000F301D20101900D928A95E1F7809116027E
:100B6000882309F442C0F20180858823F1F1418590
:100B7000528563857485F60184819581A681B7814C
:100B8000481759076A077B0781F1448355836683B9
:100B90007783CD58D94F4883C357D640CC58D94FC7
:100BA0005883C457D640CB58D94F6883C557D640D1
:100BB000CA58D94F7883C657D6400E94CB42CD58E9
:100BC000D94F4881C357D640CC58D94F5881C457C4
:100BD000D640CB58D94F6881C557D640CA58D94F4F
:100BE0007881C657D6400E942E42F20184819581B9
:100BF000A681B78180389105A105B10508F44FC0E1
:100C000080E090E0DC0123E030E0FE01EA5CFB4F95
:100C10001F01F1013183208382839383A483B583F1
:100C20000E9488A675018E01095D1F4F20E830E003
:100C3000AE01485D5F4FBC01C1010E9429912ACFDE
:100C40002E01F7E34F1AFBEF5F0AD10115968C9145
:100C5000F201808783E090E09287818748E050E04E
:100C6000B101C2010E94E2ACD20117961C920E940F
:100C7000CB42DC01ED91FC919101235F3F4FD1010B
:100C800019966C9160580190F081E02DA2010995B0
:100C9000AA2797FDA095BA2F20E030E0E5CE1E01EF
:100CA000FAEC2F1AFBEF3F0A88E0E7E4F4E0D10109
:100CB00001900D928A95E1F782E090E0D1011A96B9
:100CC0009C938E931997F201808118968C930E94C1
:100CD000CB42DC01ED91FC919201285F3F4FD201A4
:100CE00014966C9160580190F081E02DA101099556
:100CF000AA2797FDA095BA2F20E030E08ACF4115B2
:100D0000510509F408950C942E038091140280FD7E
:100D100012C00E94FE3140E050E060E00E94693164
:100D20008091140290911502019690931502809380
:100D3000140281E008950E94FE314FEF50E060E020
:100D40000E946931EDCF0C948506E1E6F0E080E881
:100D50008083108278940E94FE3140E050E86FEF6B
:100D60000E94693108951F93CF93DF9300D000D084
:100D700000D0CDB7DEB71E821D820E944C330E9488
:100D8000BF32FC0140815181628173814130510544
:100D9000F2E06F07710508F06AC041155105610561
:100DA000710509F42CC02D813E8180E090E0DC01CA
:100DB000ABBFFC0117913127032E0294E02DEF7099
:100DC000E327132F1025110F107EE127102D132775
:100DD000107F1695032E000C111F3695369536950B
:100DE0003F71312732272E2F0196A11DB11D841787
:100DF0009507A607B70709F0DBCF3E832D830E9436
:100E00004C330E94B432FC01208131818D819E815E
:100E10002817390701F10E94FE314FEF50E060E0E2
:100E20000E9469310E944C3322E030E0AE014B5FFA
:100E30005F4F66E274E00E94EE32809116028111EB
:100E400026C026960FB6F894DEBF0FBECDBFDF9149
:100E5000CF911F91089580911602882381F00E94FE
:100E6000FE314FEF5FEF6FEF0E946931EACF0E94D2
:100E7000FE314FEF50E060E00E946931E2CF0E9406
:100E8000FE3140E05FEF6FEF0E946931DACF83EA15
:100E900096E09A8389831C821B820E947E432AEFFC
:100EA00030E040E050E0BE016F5F7F4F0E941A4487
:100EB000C8CFCF92DF92EF92FF920F931F93CF9301
:100EC000DF93CDB7DEB7C159D1090FB6F894DEBFB5
:100ED0000FBECDBF8C017A01DC018C918823C1F15A
:100EE000FE0131966F0186E8DF011D928A95E9F7D0
:100EF00041385105E8F5CE0107960E94C2ACEE825A
:100F0000F8018485898345855685678570894A837C
:100F10005B836C837D838BE03196DE01A957BF4FE5
:100F200001900D928A95E1F781E8C157DF4F8883E0
:100F3000CF58D0400E94CB42DC01ED91FC91019052
:100F4000F081E02D9601AE0149575F4F60E00995B1
:100F5000CF56DF4F0FB6F894DEBF0FBECDBFDF9187
:100F6000CF911F910F91FF90EF90DF90CF90089558
:100F70000E94FE314FEF50E060E00E946931E8CFFF
:100F80000C945907CF93DF93CDB7DEB7CF5CD54133
:100F90000FB6F894DEBF0FBECDBF0E94A5060E941B
:100FA000CB420E9441020E949C6D0E94786A0E947E
:100FB000DD6E0E94B30620E034E843E050E061E0DB
:100FC00070E0CE018E5A9C4E0E942630CE018E5A81
:100FD0009C4E0E949F301A8219821C821B821E82A4
:100FE0001D8218861F821D861C861F861E86CE01C6
:100FF00009960E94558C8E010F5F1F4FA80169ED65
:1010000072E0CE0109960E94AA8C980148EE52E047
:1010100060E070E0CE0109960E94B38CC45ADA4EAB
:1010200019830883CC55D5418CE193E0C65ADA4E3A
:1010300099838883CA55D54122E533E12C0F3D1FA2
:101040003C832B838FEF92E09A8389833093550FF3
:101050002093540F1093530E0093520ECE018E53D3
:101060009A4EDC0114961D921D921D921C921797A8
:1010700013961C930E9312972CE033E02D933C9320
:10108000FE01E253FA4E91838083F887EF832FE7C6
:1010900036E03E832D83C759DA4E19821882C9562D
:1010A000D541C559DA4E19821882CB56D541C3595C
:1010B000DA4E19821882CD56D541C159DA4E1982BD
:1010C0001882CF56D541CF58DA4E19821882C157AF
:1010D000D541CD58DA4E19821882C357D541CB5825
:1010E000DA4E19821882C557D541C958DA4E19828D
:1010F0001882C757D541C758DA4E1882C957D5410B
:10110000C658DA4E1882CA57D541C558DA4E1882E9
:10111000CB57D541C455DA4E1882CC5AD541045527
:101120001A4ED8011D9228E0E7E4F4E001900D92F8
:101130002A95E1F7F801118622E030E03387228713
:10114000148629E635E12C0F3D1F328B218B948BC1
:10115000838B3093510E2093500E90934F0E8093BB
:101160004E0E10934D0E00934C0E0E94CB42DC01AC
:10117000ED91FC910480F581E02D2CE238E2C6531C
:10118000DA4E39832883CA5CD541C453DA4E1983B9
:101190000883CC5CD541BE0166537A4E0995C5598A
:1011A000DA4E19830883CB56D54180EC97E0C759B6
:1011B000DA4E99838883C956D5410E94E84D7C0157
:1011C0000E94B74DC159DA4E19830883CF56D541D5
:1011D00020E23EE0C359DA4E39832883CD56D5410B
:1011E000CD58DA4E99838883C357D54188E093E080
:1011F000CF58DA4E99838883C157D541C958DA4E02
:10120000F982E882C757D54186E093E0CB58DA4EA1
:1012100099838883C557D541C653DA4E39832883CD
:10122000CA5CD541C453DA4E19830883CC5CD541DE
:101230000E940C4DAE0146535A4E60E070E00E9491
:10124000764CCF58DA4E88819981C157D541C65323
:10125000DA4E99838883CA5CD541CD58DA4E8881AD
:101260009981C357D541C453DA4E99838883CC5CA6
:10127000D5410E940C4DAE0146535A4E61E070E0DC
:101280000E94764CCB58DA4E88819981C557D5415A
:10129000C653DA4E99838883CA5CD541C958DA4E61
:1012A00088819981C757D541C453DA4E9983888381
:1012B000CC5CD5410E940C4DAE0146535A4E62E0C3
:1012C00070E00E94764C8091160281114FC081C05F
:1012D0004FB7F894CA5ADC4E28813981C655D3419C
:1012E000C85ADC4E88819981C855D34128173907DF
:1012F00009F466C0CA5ADC4EE881F981C655D3416B
:10130000F17022E533E12C0F3D1FE20FF31F6085E2
:10131000CA5ADC4E28813981C655D341C85ADC4EA1
:1013200088819981C855D3412817390709F44FC0DE
:10133000CA5ADC4E88819981C655D3410196937073
:10134000CA5ADC4E99838883C655D3414FBFC65ACB
:10135000DA4EE881F981CA55D541309739F0C45A3F
:10136000DA4E88819981CC55D5410995CA5ADC4E0F
:1013700028813981C655D341C85ADC4E888199816C
:10138000C855D3412817390709F0A2CF0E94CB4294
:10139000DC01ED91FC910680F781E02D09958091AB
:1013A0001602882379F00E947E430E946444809153
:1013B00016028111DBCF0E940C4D0E94A64CD6CFA5
:1013C0006FEFC4CF0E945E4B0E941147ECCF0E948A
:1013D000DAAB0E9402562AE033E0C653DA4E398374
:1013E0002883CA5CD541C453DA4E99838883CC5C88
:1013F000D5410E947E432AE030E040E050E0BE014B
:1014000066537A4E0E941A44B1CF6F927F928F92A8
:101410009F92AF92BF92CF92DF92EF92FF920F9383
:101420001F93CF93DF93CDB7DEB7C554D2400FB62D
:10143000F894DEBF0FBECDBF3C01CA5CDD4F888291
:10144000C653D240C95CDD4F9882C753D240C85CB6
:10145000DD4FA882C853D240C75CDD4FB882C95364
:10146000D240C65CDD4FC882CA53D240C55CDD4F56
:10147000D882CB53D240C45CDD4FE882CC53D240FB
:10148000C35CDD4FF882CD53D240C25CDD4F088390
:10149000CE53D240C15CDD4F1883CF53D240C05CE5
:1014A000DD4F2883C054D240CF5BDD4F3883C15419
:1014B000D240CE5BDD4F4883C254D240CD5BDD4F7E
:1014C0005883C354D240CC5BDD4F6883C454D240B0
:1014D000CB5BDD4F7883C554D2409E012F5F3F4FD9
:1014E000690182E391E0D901FC011D923197E9F78E
:1014F00081E090E09A838983C355DF4F8883CD5A7A
:10150000D040ECE6F4E011E620E030E0A90101C0B3
:101510001191A5E6B0E00E94A8A69B01AC01210FA5
:10152000311D411D511D84E0ED37F80789F7C25583
:10153000DF4F288339834A835B83CE5AD040CC5C0B
:10154000DD4F19821882C453D2400E9470A6DE017A
:10155000AC5CBD4F7D018E010E541F4F20E830E082
:10156000AE014D545F4FBC01CE018A5C9D4F0E947D
:101570002991CC5CDD4F28813981C453D24021159B
:101580003105B9F0C901CB5BDD4F0FB6F894DEBF72
:101590000FBECDBFDF91CF911F910F91FF90EF90C4
:1015A000DF90CF90BF90AF909F908F907F906F9083
:1015B00008950E9426910F571E4F20E031E0AE01A2
:1015C0004D5C5E4FBC01C6010E942991CC5CDD4F91
:1015D00028813981C453D2402115310599F6CD5C5B
:1015E000DD4F4881C353D24050E0D301ED91FC91CF
:1015F0003097A1F0BE016D5C7E4FD30112968D91A4
:101600009C9113970995CC5CDD4F8881C453D240DF
:10161000CB5CDD4F9881C553D240B5CF80E090E0E0
:10162000B2CF2F923F924F925F926F927F928F92A2
:101630009F92AF92BF92CF92DF92EF92FF920F9361
:101640001F93CF93DF93CDB7DEB7A8970FB6F8946B
:10165000DEBF0FBECDBF98A38F8F0E94DD6E0E94AC
:10166000356E69A37AA38BA39CA3CB01ABA1BCA1CC
:10167000898B9A8BAB8BBC8B0E94DD6E0E946D6E4A
:101680002B013C016D8B7E8B8F8B988F0E94DD6EC2
:101690000E94A56E6DA37EA38FA398A7698F7A8FF2
:1016A0008B8F9C8FEF8DF8A1FD96C080D180E2805A
:1016B000F3800F8D18A11E0185E1280E311CDE017B
:1016C0005D96BE8FAD8F89A19AA1ABA1BCA1BC01D3
:1016D000CD01F80121A932A943A954A90E9422A74A
:1016E0004B015C0120E030E0A9010E9487A787FD43
:1016F00085C0C501B401A70196010E9432A9181640
:101700007CF00C5F1F4F8D8D9E8D2816390609F4D5
:1017100057C0D1016D917D918D919D911D01D9CFC2
:101720000E947E438091270290912802A091290275
:10173000B0912A0289839A83AB83BC8389A19AA141
:10174000ABA1BCA18D839E83AF83B88749865A869F
:101750006B867C868DA19EA1AFA1B8A58D879E8743
:10176000AF87B88B1F921F9289809A80AB80BC8014
:10177000CD80DE80EF80F88409851A852B853C8535
:101780004D855E856F8578898F8D98A10E94050AA9
:1017900089A19AA1ABA1BCA1EF8DF8A181AB92ABBD
:1017A000A3ABB4AB45AA56AA67AA70AE8DA19EA101
:1017B000AFA1B8A581AF92AFA3AFB4AF0F900F9018
:1017C000EF8DF8A1ED5BFF4F8081A8960FB6F894DE
:1017D000DEBF0FBECDBFDF91CF911F910F91FF9064
:1017E000EF90DF90CF90BF90AF909F908F907F90C1
:1017F0006F905F904F903F902F900895C501B40176
:10180000905879CFAF92BF92CF92DF92EF92FF9232
:101810000F931F93CF93DF93CDB7DEB7CD53D24055
:101820000FB6F894DEBF0FBECDBF5C01CA5CDD4FC2
:101830000883C653D240C95CDD4F1883C753D240DA
:10184000C85CDD4F2883C853D240C75CDD4F388366
:10185000C953D240C65CDD4F4883CA53D240C55CF1
:10186000DD4F5883CB53D240C45CDD4F6883CC53EB
:10187000D240C35CDD4F7883CD53D2409E012F5FB1
:101880003F4F690182E391E0D901FC011D9231973C
:10189000E9F781E090E09A838983C355DF4F88831D
:1018A000CD5AD040EFE7F4E012E620E030E0A901A5
:1018B00001C01191A5E6B0E00E94A8A69B01AC0171
:1018C000210F311D411D511D84E0E938F80789F7CA
:1018D000C255DF4F288339834A835B83CE5AD04079
:1018E000CC5CDD4F19821882C453D2400E946AA694
:1018F000DE01AC5CBD4F7D018E010E541F4F20E810
:1019000030E0AE014D545F4FBC01CE018A5C9D4F6B
:101910000E942991CC5CDD4F28813981C453D2408B
:101920002115310599F0C901C35CDD4F0FB6F8945C
:10193000DEBF0FBECDBFDF91CF911F910F91FF9002
:10194000EF90DF90CF90BF90AF9008950E942691C6
:101950000F571E4F20E031E0AE014D5C5E4FBC01E1
:10196000C6010E942991CC5CDD4F28813981C45386
:10197000D24021153105B9F6CD5CDD4F4881C35306
:10198000D24050E0D501ED91FC913097A1F0BE011D
:101990006D5C7E4FD50112968D919C9113970995A0
:1019A000CC5CDD4F8881C453D240CB5CDD4F988145
:1019B000C553D240B9CF80E090E0B6CFCF92DF924E
:1019C000EF92FF920F931F93CF93DF93CDB7DEB7C4
:1019D00028970FB6F894DEBF0FBECDBF6C01162F4F
:1019E0000E947E4340912702509128026091290273
:1019F00070912A02042F49835A836B837C8392E07F
:101A0000492F9D831E82812F90E0612F98878F83BD
:101A1000E12CF12C1A812B813C8150E07885C601A4
:101A20000E94020C28960FB6F894DEBF0FBECDBF01
:101A3000DF91CF911F910F91FF90EF90DF90CF90AA
:101A40000895CF92DF92EF92FF920F931F93CF935F
:101A5000DF93CDB7DEB728970FB6F894DEBF0FBE81
:101A6000CDBF6C01162F0E947E43409127025091FA
:101A700028026091290270912A02042F49835A8317
:101A80006B837C8391E0492F9D831E82812F90E0A0
:101A9000612F98878F83E12CF12C1A812B813C8157
:101AA00050E07885C6010E94020C28960FB6F89483
:101AB000DEBF0FBECDBFDF91CF911F910F91FF9081
:101AC000EF90DF90CF900895AF92BF92CF92DF92C8
:101AD000EF92FF920F931F93CF93DF93CDB7DEB7B3
:101AE000C953D2400FB6F894DEBF0FBECDBF5C0124
:101AF000CA5CDD4F488359836A837B83C653D240D7
:101B00009E012F5F3F4F690182E391E0D901FC0103
:101B10001D923197E9F781E090E09A838983C3555C
:101B2000DF4F8883CD5AD040EBE8F4E013E620E0A5
:101B300030E0A90101C01191A5E6B0E00E94A8A67D
:101B40009B01AC01210F311D411D511D84E0EE3977
:101B5000F80789F7C255DF4F288339834A835B83AF
:101B6000CE5AD040CC5CDD4F19821882C453D2408B
:101B70000E9476A6DE01AC5CBD4F7D018E010E5445
:101B80001F4F20E830E0AE014D545F4FBC01CE0145
:101B90008A5C9D4F0E942991CC5CDD4F2881398160
:101BA000C453D2402115310599F0C901C75CDD4FFE
:101BB0000FB6F894DEBF0FBECDBFDF91CF911F915E
:101BC0000F91FF90EF90DF90CF90BF90AF9008956E
:101BD0000E9426910F571E4F20E031E0AE014D5C70
:101BE0005E4FBC01C6010E942991CC5CDD4F28816B
:101BF0003981C453D24021153105B9F6CD5CDD4F92
:101C00004881C353D24050E0D501ED91FC9130970B
:101C1000A1F0BE016D5C7E4FD50112968D919C9115
:101C200013970995CC5CDD4F8881C453D240CB5CBF
:101C3000DD4F9881C553D240B9CF80E090E0B6CF58
:101C40000F931F93CF93DF9300D000D0CDB7DEB7B3
:101C50008C01662309F453C00E94CE870E949770BE
:101C60000E947E43409127025091280260912902F0
:101C700070912A028091100290911102A09112029B
:101C8000B0911302481B590B6A0B7B0B443F514028
:101C90006105710520F4F8018081811148C00E941E
:101CA0007E438091270290912802A0912902B09151
:101CB0002A028093100290931102A0931202B09313
:101CC00013028DEB9EE09A8389831C830B830E9411
:101CD0007E4328E037E040E050E0BE016F5F7F4F79
:101CE0000E941A4490934B0E80934A0E0F900F90CF
:101CF0000F900F90DF91CF911F910F9108950E9447
:101D0000CE870E947C8700914A0E10914B0E0E9454
:101D10007E43B8010E9419430E94786A24E630E0AD
:101D200040E050E06CE573E40E942F6ADFCF0E9430
:101D30007E434091270250912802609129027091C0
:101D40002A0220E030E0F801818992890E94640D26
:101D5000F8011082809116028111A1CF0E94FE31FC
:101D6000FC018081882309F49ACF0E94FE3140E073
:101D70005FEF6FEF0E94693192CFCF93DF93EC0159
:101D80008881811104C080E0DF91CF9108950E9485
:101D90007E43409127025091280260912902709160
:101DA0002A0220E030E089899A890E94640D188215
:101DB000809116028111E7CF0E94FE31FC018081E3
:101DC000882309F30E94FE3140E05FEF6FEF0E942D
:101DD0006931D9CFCF92DF92EF92FF920F931F9389
:101DE000CF93DF93CDB7DEB728970FB6F894DEBF59
:101DF0000FBECDBF6C01662309F441C00E947E4333
:101E000040912702509128026091290270912A0284
:101E100080910C0290910D02A0910E02B0910F02E0
:101E2000481B590B6A0B7B0B443F51406105710500
:101E300008F455C00E947E438091270290912802A9
:101E4000A0912902B0912A0280930C0290930D0276
:101E5000A0930E02B0930F020E947E43809127024E
:101E600090912802A0912902B0912A0289839A8335
:101E7000AB83BC831E821D8281E090E012C00E9471
:101E80007E438091270290912802A0912902B0916F
:101E90002A0289839A83AB83BC831E821D8280E0E1
:101EA00090E0682F8F839887E12CF12C09811A81AB
:101EB0002B813C814D815E81792FC6010E94020CED
:101EC00028960FB6F894DEBF0FBECDBFDF91CF913D
:101ED0001F910F91FF90EF90DF90CF9008950E9497
:101EE0007E4340912702509128026091290270910F
:101EF0002A0220E030E0C6010E94640DE0914C0E01
:101F0000F0914D0E1082809116028111D9CF0E945E
:101F1000FE31FC018081882399F20E94FE3140E06D
:101F20005FEF6FEF0E946931CBCFAF92BF92CF923C
:101F3000DF92EF92FF920F931F93CF93DF93CDB772
:101F4000DEB7C154D2400FB6F894DEBF0FBECDBF8E
:101F50005C01CA5CDD4FC882C653D240C95CDD4F0C
:101F6000D882C753D240C85CDD4FE882C853D24004
:101F7000C75CDD4FF882C953D240C65CDD4F088391
:101F8000CA53D240C55CDD4F1883CB53D240C45CEA
:101F9000DD4F2883CC53D240C35CDD4F3883CD5313
:101FA000D240C25CDD4F4883CE53D240C15CDD4F8E
:101FB0005883CF53D240C05CDD4F6883C054D240B9
:101FC000CF5BDD4F7883C154D2409E012F5F3F4FDE
:101FD000690182E391E0D901FC011D923197E9F793
:101FE00081E090E09A838983C355DF4F8883CD5A7F
:101FF000D040E0EAF4E015E620E030E0A90101C0BD
:102000001191A5E6B0E00E94A8A69B01AC01210FAA
:10201000311D411D511D84E0EB3AF80789F7C25587
:10202000DF4F288339834A835B83CE5AD040CC5C10
:10203000DD4F19821882C453D2400E946DA6DE0182
:10204000AC5CBD4F7D018E010E541F4F20E830E087
:10205000AE014D545F4FBC01CE018A5C9D4F0E9482
:102060002991CC5CDD4F28813981C453D2402115A0
:10207000310599F0C901CF5BDD4F0FB6F894DEBF93
:102080000FBECDBFDF91CF911F910F91FF90EF90C9
:10209000DF90CF90BF90AF9008950E9426910F5788
:1020A0001E4F20E031E0AE014D5C5E4FBC01C60129
:1020B0000E942991CC5CDD4F28813981C453D240E4
:1020C00021153105B9F6CD5CDD4F4881C353D240AF
:1020D00050E0D501ED91FC913097A1F0BE016D5C0F
:1020E0007E4FD50112968D919C9113970995CC5CEA
:1020F000DD4F8881C453D240CB5CDD4F9881C553FE
:10210000D240B9CF80E090E0B6CF4F925F926F920D
:102110007F928F929F92AF92BF92CF92DF92EF9277
:10212000FF920F931F93CF93DF93CDB7DEB72C971A
:102130000FB6F894DEBF0FBECDBF4C010E945E4BC0
:1021400062E070E00E94D444762E472E582E692E0D
:10215000F40125A536A547A550A90E9422A76B0129
:102160007C0120E030E0A9010E9487A7A701960129
:1021700087FD61C0F40161A172A183A194A10E94B5
:1021800087A787FF3FC081E090E09093260280936D
:1021900025020E947E438091270290912802A091FF
:1021A0002902B0912A02C82E89839A83AB83BC830B
:1021B00082E0082F8D831E821F821886472D872D6F
:1021C000942DA52DB62D89879A87AB87BC87A12C26
:1021D000B12CDA80EB80FC8010E020E030E05A8502
:1021E0006B857C85C4010E94950F10922602109287
:1021F0002502872D942DA52DB62DF40185A796A730
:10220000A7A7B0ABF40182892C960FB6F894DEBF75
:102210000FBECDBFDF91CF911F910F91FF90EF9037
:10222000DF90CF90BF90AF909F908F907F906F90F6
:102230005F904F90089550589DCF4F925F926F924C
:102240007F928F929F92AF92BF92CF92DF92EF9246
:10225000FF920F931F93CF93DF93CDB7DEB72C97E9
:102260000FB6F894DEBF0FBECDBF4C010E945E4B8F
:1022700061E070E00E94D444762E472E582E692EDD
:10228000F40121A532A543A554A50E9422A76B0104
:102290007C0120E030E0A9010E9487A7A7019601F8
:1022A00087FD61C0F401658D768D878D90A10E94B8
:1022B00087A787FF3FC081E090E09093260280933C
:1022C00025020E947E438091270290912802A091CE
:1022D0002902B0912A02C82E89839A83AB83BC83DA
:1022E00081E0082F8D831E821F821886472D872D3F
:1022F000942DA52DB62D89879A87AB87BC87A12CF5
:10230000B12CDA80EB80FC8010E020E030E05A85D0
:102310006B857C85C4010E94950F10922602109255
:102320002502872D942DA52DB62DF40181A792A706
:10233000A3A7B4A7F40181892C960FB6F894DEBF49
:102340000FBECDBFDF91CF911F910F91FF90EF9006
:10235000DF90CF90BF90AF909F908F907F906F90C5
:102360005F904F90089550589DCF4F925F926F921B
:102370007F928F929F92AF92BF92CF92DF92EF9215
:10238000FF920F931F93CF93DF93CDB7DEB72C97B8
:102390000FB6F894DEBF0FBECDBF4C010E945E4B5E
:1023A00060E070E00E94D444762E472E582E692EAD
:1023B000F40125A136A147A150A50E9422A76B01D7
:1023C0007C0120E030E0A9010E9487A7A7019601C7
:1023D00087FD60C0F401618D728D838D948D0E94A4
:1023E00087A787FF3EC081E090E09093260280930C
:1023F00025020E947E438091270290912802A0919D
:102400002902B0912A02C82E89839A83AB83BC83A8
:102410001D821E821F821886472D872D942DA52D83
:10242000B62D89879A87AB87BC87A12CB12CDA801F
:10243000EB80FC8000E01E812F8138855A856B85FA
:102440007C85C4010E94950F1092260210922502ED
:10245000872D942DA52DB62DF40185A396A3A7A3B2
:10246000B0A7F40180892C960FB6F894DEBF0FBE9A
:10247000CDBFDF91CF911F910F91FF90EF90DF9033
:10248000CF90BF90AF909F908F907F906F905F9014
:102490004F90089550589ECFAF92BF92CF92DF9247
:1024A000EF92FF920F931F93CF93DF93CDB7DEB7D9
:1024B000CF53D2400FB6F894DEBF0FBECDBF5C0144
:1024C000CA5CDD4FE882C653D240C95CDD4FF8825A
:1024D000C753D240C85CDD4F0883C853D240C75CA5
:1024E000DD4F1883C953D240C65CDD4F2883CA53E1
:1024F000D240C55CDD4F3883CB53D240C45CDD4F46
:102500004883CC53D240C35CDD4F5883CD53D24077
:10251000C25CDD4F6883CE53D240C15CDD4F78830F
:10252000CF53D2409E012F5F3F4F690182E391E07C
:10253000D901FC011D923197E9F781E090E09A837F
:102540008983C355DF4F8883CD5AD040EDEAF4E04C
:102550001AE620E030E0A90101C01191A5E6B0E043
:102560000E94A8A69B01AC01210F311D411D511DE8
:1025700084E0E63BF80789F7C255DF4F28833983AB
:102580004A835B83CE5AD040CC5CDD4F19821882DF
:10259000C453D2400E9473A6DE01AC5CBD4F7D01E6
:1025A0008E010E541F4F20E830E0AE014D545F4FB6
:1025B000BC01CE018A5C9D4F0E942991CC5CDD4F0D
:1025C00028813981C453D2402115310599F0C901C0
:1025D000C15CDD4F0FB6F894DEBF0FBECDBFDF91FB
:1025E000CF911F910F91FF90EF90DF90CF90BF9010
:1025F000AF9008950E9426910F571E4F20E031E0C2
:10260000AE014D5C5E4FBC01C6010E942991CC5CBD
:10261000DD4F28813981C453D24021153105B9F6E7
:10262000CD5CDD4F4881C353D24050E0D501ED91E0
:10263000FC913097A1F0BE016D5C7E4FD5011296E2
:102640008D919C9113970995CC5CDD4F8881C45383
:10265000D240CB5CDD4F9881C553D240B9CF80E0EA
:1026600090E0B6CFAF92BF92CF92DF92EF92FF92FF
:102670000F931F93CF93DF93CDB7DEB72C970FB691
:10268000F894DEBF0FBECDBF5C018B0182E090E00D
:1026900090932602809325024B875C870E947E439D
:1026A0008091270290912802A0912902B0912A02DC
:1026B000E82E89839A83AB83BC83222717FD20955C
:1026C000322F802F0D831E832F8338874B85642FF5
:1026D00049875C855A87C12CD12CFA800B811C81DB
:1026E000282F3E814F8158857A85C5010E944C1262
:1026F00010922602109225022C960FB6F894DEBF97
:102700000FBECDBFDF91CF911F910F91FF90EF9042
:10271000DF90CF90BF90AF9008952F923F924F924D
:102720005F926F927F928F929F92AF92BF92CF9261
:10273000DF92EF92FF920F931F93CF93DF93CDB76A
:10274000DEB7C15FD5400FB6F894DEBF0FBECDBF78
:102750005C014B0127011601243860EA360762EC60
:10276000460763E6560711F40C94151F08F476C06B
:10277000253EA5EA3A07A9EE4A07ABEB5A0709F44A
:1027800000C408F0D5C02B3FE3E43E07E9E84E075C
:10279000E5E85E0711F40C94831F08F024C22B387F
:1027A00068EC360764E146076CE6560711F40C94B2
:1027B000EB1F10F40C94961C243A9AE1390791EB24
:1027C00049079CE6590709F456C4263F3548434E4D
:1027D0005C4611F00C948B1ED801CD907D01D12C5C
:1027E0000E9498A581019601A701BC01C5010E9424
:1027F0007391F10180819181892B09F07CC30E9442
:10280000A36860E070E00E946E68AA2797FDA0951B
:10281000BA2F8A839B83AC83BD830E94A36861E047
:1028200070E00E946E68AA2797FDA095BA2F8E834C
:102830009F83A887B9870E94A36862E070E00E9426
:102840006E68AA2797FDA095BA2F8A879B87AC87C9
:10285000BD8783E089830E9410A6B8C1243D8DE620
:10286000380788E848078AE3580711F40C94522186
:1028700008F0E7C02938AAE03A07A1E44A07ABE12B
:102880005A0711F40C949C2108F093C22631E9E216
:102890003E07E2E24E07E7E05E0711F40C944E209B
:1028A00008F440C525317DED370776ED47077BE01D
:1028B000570709F4C6C3293D3C40424B5F4011F025
:1028C0000C948B1ED801CD907D01D12C0E94A7A520
:1028D00081019601A701BC01C5010E947391F1011C
:1028E00080819181892B09F006C30E94A36860E072
:1028F00070E00E9406686A837B838C839D830E94BC
:10290000A36861E070E00E9406686E837F83888719
:1029100099870E94A36862E070E00E9406686A8757
:102920007B878C879D8783E089830E941FA64EC189
:10293000203880E1380787E948078EED580711F401
:102940000C94EF2008F408C1243B71E2370777EEBE
:102950004707570711F40C94572208F0A9C22439ED
:1029600095EC39079DEF49079FED590709F4DBC343
:1029700025393348474C524E11F00C948B1EF80108
:10298000C1907F01D12C0E94BFA581019601A701B2
:10299000BC01C5010E947391D1018D919C91892B3D
:1029A00009F0A9C23201BFEF6B1A7B0A85E8F50175
:1029B000DE01A75EBD4F01900D928A95E1F7F5010A
:1029C000C080D180E280F380A12CB12C00E010E027
:1029D00088248394912CC454DA4F79826882CC5B2A
:1029E000D540C054DA4F59824882C05CD540C401FA
:1029F000002E02C0880F991F0A94E2F7AA2797FDBC
:102A0000A095BA2F8C219D21AE21BF21892B8A2B25
:102A10008B2B11F00C9412240F5F1F4F0330110504
:102A200031F7C454DA4F68807980CC5BD540C0540C
:102A3000DA4F48805980C05CD54019820E9437A681
:102A4000ADC1283E60EF360768EC460761E55607E2
:102A500011F40C94262208F018C1263C88E23807AD
:102A600080EF480781E4580711F40C94B72010F464
:102A70000C94B71D2F34B3EE3B07B1EE4B07B2E415
:102A80005B0709F4BEC3273D3F474A43574411F053
:102A90000C948B1EF801C1907F01D12C0E94C5A51A
:102AA00081019601A701BC01C5010E947391D1016A
:102AB0008D919C91892B09F01EC23201BFEF6B1AD8
:102AC0007B0A85E8F501DE01A15FBE4F01900D9202
:102AD0008A95E1F7F501C080D180E280F380A12CD6
:102AE000B12C00E010E088248394912CC454DA4F78
:102AF00079826882CC5BD540C054DA4F59824882D3
:102B0000C05CD540C401002E02C0880F991F0A94F2
:102B1000E2F7AA2797FDA095BA2F8C219D21AE211F
:102B2000BF21892B8A2B8B2B11F00C94C5230F5FAF
:102B30001F4F0330110531F7C454DA4F6880798094
:102B4000CC5BD540C054DA4F48805980C05CD5403A
:102B500019820E943DA622C12835A5ED3A07A3E8B7
:102B60004A07ADEB5A0711F40C94812008F44DC7C5
:102B70002135F4E03F07FBE84F07F6EC5F0709F467
:102B800018C3233034414C4A5D4D11F00C948B1E18
:102B9000D801CD907D01D12C0E94D7A5810196014D
:102BA000A701BC01C5010E947391F101808191814F
:102BB000892B09F0A0C18CE0EFE4F4E0DE0111966E
:102BC00001900D928A95E1F70E944FA6A2014F5FF6
:102BD0005F4F7101820120E830E0BC01CE01019617
:102BE0000E94299188C12F3DB7EA3B07BAE04B0705
:102BF000B6E95B0711F40C94E81E08F47CC7213396
:102C000069E7360768E4460768EA560709F43BC3F4
:102C10002F36354B4849504B11F00C948B1ED80180
:102C2000CD907D01D12C0E94AAA581019601A7011A
:102C3000BC01C5010E947391F10180819181892BB2
:102C400009F059C10E94A36860E070E00E942A6800
:102C50006A837B838C839D830E94A36861E070E01C
:102C60000E942A686E837F83888799870E94A36861
:102C700062E070E00E942A686A877B878C879D8764
:102C800083E089830E9422A6A1CF2F31FEE83F076F
:102C9000FFEB4F07FAE55F0711F40C94911E08F45F
:102CA000D9C7283180E9380789E9480783E65807FA
:102CB00009F417C32138304A424C534611F00C94A2
:102CC0008B1EF801C1907F01D12C0E94B9A5810112
:102CD0009601A701BC01C5010E947391D1018D919C
:102CE0009C91892B09F007C13201BFEF6B1A7B0A57
:102CF000FE01ED5DFC4FC054DA4FF983E883C05C00
:102D0000D54085E8F501C054DA4FA881B981C05C8F
:102D1000D54001900D928A95E1F7D501CD90DD90D7
:102D2000ED90FC90A12CB12C00E010E0882483945D
:102D3000912CC454DA4F79826882CC5BD540CC5355
:102D4000DA4F59824882C45CD540C401002E02C0CB
:102D5000880F991F0A94E2F7AA2797FDA095BA2F2A
:102D60008C219D21AE21BF21892B8A2B8B2B11F029
:102D70000C9444230F5F1F4F0330110531F7C454E7
:102D8000DA4F68807980CC5BD540CC53DA4F4880ED
:102D90005980C45CD54019820E9431A6710182011C
:102DA00020E830E0A301BC01CE0101960E942991E8
:102DB000A2C0211591EC390794EF490791E2590718
:102DC00011F40C94BD1F08F45CC6213BECE33E07F4
:102DD000E1EF4E07E1E35E0709F4A7C0253D3B4163
:102DE0004744524309F097C7D801CD907D01D12CBB
:102DF0000E948FA581019601A701BC01C5010E9417
:102E00007391F10180819181892B09F074C0620175
:102E1000FFEFCF1ADF0AD5018C9181110C943E2669
:102E2000D40114968D919C9115979A838983169657
:102E30008D919C9117979C838B830E940C4DFE0172
:102E400031965F01AF0160E070E00E94764CD401E2
:102E500018968D919C9119979A8389831A968D91D2
:102E60009C911B979C838B830E940C4DA50161E074
:102E700070E00E94764CF401848595859A8389835D
:102E8000868597859C838B830E940C4DA50162E00B
:102E900070E00E94764C19820E9407A6710182019F
:102EA00020E830E0A601BC01C5010E94299123C0A1
:102EB000283FBFE23B07BAEE4B07B8EE5B0709F4C9
:102EC00096C0283A3747464B5D4F09F024C7F801B2
:102ED000C1907F01D12C0E94CBA581019601A70151
:102EE000BC01C5010E947391D1018D919C91892BE8
:102EF00011F40C94B422CF50DA4F0FB6F894DEBF21
:102F00000FBECDBFDF91CF911F910F91FF90EF903A
:102F1000DF90CF90BF90AF909F908F907F906F90F9
:102F20005F904F903F902F900895D801CD907D01F4
:102F3000D12C0E9495A581019601A701BC01C50174
:102F40000E947391F10180819181892BA1F6620128
:102F5000FFEFCF1ADF0AD5018C9181110C942E2638
:102F60001A8219821C821B820E9402569E012F5FC8
:102F70003F4F5901B9010E94895219820E940DA642
:102F80008DCFD801CD907D01D12C0E94A1A58101CA
:102F90009601A701BC01C5010E947391F1018081D6
:102FA0009181892B09F0A7CF0E94A36860E070E0AF
:102FB0000E94E2676A837B838C839D830E94A3685F
:102FC00061E070E00E94E2676E837F838887998763
:102FD0000E94A36862E070E00E94E2676A877B87D4
:102FE0008C879D8783E089830E9419A6EFCDD80145
:102FF000CD907D01D12C0E94E6A581019601A7010B
:10300000BC01C5010E947391F10180819181892BDE
:1030100009F071CFD5011496FC9014971596EC9099
:1030200015970D911C910E944C332F2D3E2DAE0112
:103030004E5F5F4FB8010E941832F9820E945EA66F
:10304000C5CDD801CD907D01D12C0E94D4A58101A0
:103050009601A701BC01C5010E947391F101808115
:103060009181892B09F047CF19821A821B821C8219
:103070000E944CA6ABCDD801CD907D01D12C0E94F1
:10308000D1A581019601A701BC01C5010E947391E0
:10309000F10180819181892B09F02DCF6201FFEF31
:1030A000CF1ADF0A0E947E43809127029091280266
:1030B000A0912902B0912A0289839A83AB83BC83B1
:1030C0003E0126E0620E711C00E010E0882483942B
:1030D000912C44E0A42EB12C52E0E52EF12C0E945C
:1030E0000256B8010E94CC528130910511F40C9423
:1030F0004F2514F40C94E2228230910511F40C94C3
:103100004A25039719F4F301B182A0820F5F1F4F84
:10311000F2E06F0E711C0330110509F783E08D8317
:103120000E9449A6A5C0F801C1907F01D12C0E9440
:1031300083A581019601A701BC01C5010E9473917D
:10314000D1018D919C91892B09F0D5CEF501C080DC
:10315000D180E280F380A701662777278D2C9E2CF3
:10316000AF2CBB24C651DA4F4883CA5ED540C55147
:10317000DA4F5883CB5ED540C451DA4F6883CC5EBA
:10318000D540C751DA4F7883C95ED5400E94FE31E1
:10319000C651DA4F4881CA5ED540582D6C2D0E9429
:1031A00069310E94FE31DC011C9219820E94FBA54C
:1031B0000DCDF801C1907F01D12C0E94C8A58101DD
:1031C0009601A701BC01C5010E947391D1018D91A7
:1031D0009C91892B09F08FCE0E94774E0E9441026C
:1031E00060E070E00E941B0223ED38E44EE85EE3ED
:1031F0000E948BA769837A838B839C830E9440A65D
:10320000E5CCF801C1907F01D12C0E94DDA58101A0
:103210009601A701BC01C5010E947391D1018D9156
:103220009C91892B09F067CE6201BFEFCB1ADB0AB4
:103230000E945E4B7C0100E010E00E940256B80143
:103240000E9483520E94025640E050E0B8010E9462
:1032500021520F5F1F4F0330110579F7F701BD961B
:1032600086E0DF011D928A95E9F719820E9455A632
:103270007101820120E830E0A601BC01CE01019677
:103280000E94299138CED801CD907D01D12C0E9489
:103290007AA581019601A701BC01C5010E94739125
:1032A000F10180819181892B09F025CE0E94DD6E8C
:1032B0000E94356E69837A838B839C830E94DD6EC6
:1032C0000E946D6E6D837E838F8398870E94DD6E72
:1032D0000E94A56E69877A878B879C870E94F2A5DA
:1032E00075CCF801C1907F01D12C0E9486A5810187
:1032F0009601A701BC01C5010E947391D1018D9176
:103300009C91892B09F0F7CD0E94786AFC0181819C
:103310009281A381B48189839A83AB83BC830E9409
:10332000FEA554CC233E3041434C564009F0F3C433
:10333000D801CD907D01D12C0E94DAA581019601A2
:10334000A701BC01C5010E947391F10180819181A7
:10335000892B09F0D0CD92012F5F3F4FC952DA4F30
:1033600039832883C75DD540D50111960D90BC9156
:10337000A02DC051DA4FB983A883C05FD540D501D5
:1033800013966D907D908D909C901697C353DA4F55
:10339000688279828A829B82CD5CD5401796BC91E7
:1033A000C553DA4FB883CB5CD540F5010084F18575
:1033B000E02DC951DA4FF983E883C75ED540D501C6
:1033C0001A96BC91CA51DA4FB883C65ED540F50152
:1033D0004385548565857685F785C653DA4FF8832E
:1033E000CA5CD540D50150960D90BC91A02DC1521C
:1033F000DA4FB983A883CF5DD540F501F289C25277
:10340000DA4FF883CE5DD540D50153960D90BC912F
:10341000A02DCA53DA4FB983A883C65CD540F50105
:10342000C588D688E788F08CF18DC552DA4FF883CD
:10343000CB5DD540D5015A960D90BC91A02DC452BC
:10344000DA4FB983A883CC5DD540F501F48DC8531C
:10345000DA4FF883C85CD540F501858D968DA78D30
:10346000B0A1F1A1CD52DA4FF883C35DD540F5018B
:1034700002A0F3A1E02DC752DA4FF983E883C95DBA
:10348000D540F501F4A1C251DA4FF883CE5ED540A4
:10349000F50105A0F6A1E02DCC53DA4FF983E883BE
:1034A000C45CD540F50107A110A521A532A5F3A55F
:1034B000CB51DA4FF883C55ED540F50104A4F5A5DC
:1034C000E02DC054DA4FF983E883C05CD540F501A4
:1034D000F6A5C454DA4FF883CC5BD540F50167A458
:1034E00070A881A892A8CF51DA4F688279828A8227
:1034F0009B82C15ED540F3A9CF52DA4FF883C15DFC
:10350000D540F50164A875A8F081C151DA4FF88360
:10351000CF5ED540C35DDB4FF883CD52D440C2525D
:10352000DA4F8880CE5DD540C25DDB4F8882CE52B7
:10353000D440C251DA4F9880CE5ED540C15DDB4F9A
:103540009882CF52D440C051DA4FA880B980C05F72
:10355000D540C75EDD4FB982A882C951D240CA5357
:10356000DA4FE881F981C65CD540C55EDD4FF9834D
:10357000E883CB51D240CC53DA4F88809980C45C29
:10358000D540C35EDD4F99828882CD51D240C3536E
:10359000DA4F88809980AA80BB80CD5CD540C65721
:1035A000DF4F88829982AA82BB82CA58D040C25714
:1035B000DF4FC882D982EA82FB82CE58D040CE56F5
:1035C000DF4F088319832A833B83C259D0409E0171
:1035D00028553C4FCC53DA4F39832883C45CD540FF
:1035E000C553DA4F8880CB5CD540F9018082C55243
:1035F000DA4F9880CB5DD5409182CB51DA4FA880CD
:10360000C55ED540A282C951DA4F28813981C75E93
:10361000D540CC56DE4F39832883C459D140C4529B
:10362000DA4FE881F981CC5DD540CA56DE4FF98387
:10363000E883C659D140C054DA4F88809980C05C75
:10364000D540C856DE4F99828882C859D1409E0124
:103650002D5D3C4FC054DA4F39832883C05CD54080
:10366000CA51DA4F8880C65ED540F9018082C853BE
:10367000DA4F9880C85CD5409182C454DA4FA88054
:10368000CC5BD540A28249835A836B837C838D8334
:103690009E83AF83B887CF51DA4F288139814A8121
:1036A0005B81C15ED54029873A874B875C87AE0135
:1036B00042565D4FC454DA4F59834883CC5BD540A2
:1036C000C653DA4FE881CA5CD540DA01EC93CD529B
:1036D000DA4FF881C35DD5401196FC931197CF5214
:1036E000DA4F8880C15DD54012968C921297C152F4
:1036F000DA4FA880B980CF5DD540C15FDE4FB98277
:10370000A882CF50D140C752DA4F28813981C95D94
:10371000D540CF5EDE4F39832883C151D140CD5E85
:10372000DE4F79826882C351D1404DE254E04C0FA4
:103730005D1F4F5F5F4FC853DA4F59834883C85CA2
:10374000D540BE01615F7E4FCA53DA4F79836883EB
:10375000C65CD540CE0101965C018E01075E1D4F0F
:10376000A451B2406D01FE01EC56FE4F4F01612C99
:10377000712CC151DA4FE881CF5ED540C553DA4F85
:1037800059824882CB5CD5402B01C353DA4F398232
:103790002882CD5CD5401801CF52DA4F99838883B7
:1037A000C15DD540EE2309F49AC0CC53DA4FE881CD
:1037B000F981C45CD540E60DF71D8081882311F4A2
:1037C0000C944325D4018D919C91C054DA4FE8812B
:1037D000F981C05CD540E60DF71D2081CA53DA4F50
:1037E0002883C65CD540211106C0D5011D921D92CB
:1037F0001D921C921397C454DA4FE881F981CC5B77
:10380000D540E60DF71DB081C653DA4FB883CA5CC8
:10381000D540B11105C021E030E0F20131832083B1
:103820008230910511F40C94C42614F40C947E2576
:103830008330910511F40C946A26049709F047C06F
:10384000D5012D913D914D915C91CD52DA4F288358
:1038500039834A835B83C35DD540F6012081318182
:1038600042815381C351DA4F2883CD5ED540C75181
:10387000DA4F3883C95ED540C651DA4F4883CA5EF5
:10388000D540C551DA4F5883CB5ED5400E940256D1
:10389000CD52DA4FE880F9800A811B81C35DD540A3
:1038A000C351DA4F2881CD5ED540C751DA4F3881F8
:1038B000C95ED540C651DA4F4881CA5ED540C55170
:1038C000DA4F5881CB5ED540B3010E94A455CA534C
:1038D000DA4FF881C65CD540F1110C94C525BFEFD5
:1038E0006B1A7B0AE2E04E0E511CF4E0AF0EB11CE5
:1038F00022E0220E311C34E0C30ED11C42E0840EC3
:10390000911C53E06516710409F409C6C853DA4FD7
:10391000A881B981C85CD540ED91C853DA4FB9830D
:10392000A883C85CD540EE23D1F23FCF223030418E
:10393000474D544609F0EFC1D801CD907D01D12CFF
:103940000E94B0A581019601A701BC01C5010E949A
:103950007391F10180819181892B09F0CCCA920188
:103960002F5F3F4FC454DA4F39832883CC5BD54057
:1039700085E8F501DE01AE54BB4F01900D928A95AA
:10398000E1F7D5018D909D90AD90BC90C12CD12CCC
:1039900000E010E0EE24E394F12CC054DA4F598299
:1039A0004882C05CD540C701002E02C0880F991F15
:1039B0000A94E2F7AA2797FDA095BA2F88219921AA
:1039C000AA21BB21892B8A2B8B2B09F0AAC60F5F5A
:1039D0001F4F0330110539F7C054DA4F4880598022
:1039E000C05CD54019820E9428A67101820120E89E
:1039F00030E0C454DA4F48815981CC5BD540BC01DA
:103A0000CE0101960E94299176CA283E354A494E38
:103A10005B4B09F080C1D801CD907D01D12C0E9473
:103A20009EA581019601A701BC01C5010E94739169
:103A3000F10180819181892B09F05DCA0E94A36800
:103A400060E070E00E94BE676A837B838C839D8305
:103A50000E94A36861E070E00E94BE676E837F836E
:103A6000888799870E94A36862E070E00E94BE6721
:103A70006A877B878C879D8783E089830E9416A64F
:103A8000A5C82A3E3A4E4543504209F044C1D801E8
:103A9000CD907D01D12C0E947DA581019601A701C9
:103AA000BC01C5010E947391F10180819181892B34
:103AB00009F021CA6201FFEFCF1ADF0A7E0122E07E
:103AC000E20EF11C00E010E00E944102B8010E94E9
:103AD0000D02A0E0B0E0F70181939193A193B1931F
:103AE0007F010F5F1F4F0830110571F788E0898350
:103AF0000E94F5A5BDCB2B3B3C464E4B5B4809F0E5
:103B00000AC1D801CD907D01D12C0E94ADA58101C3
:103B10009601A701BC01C5010E947391F10180814A
:103B20009181892B09F0E7C90E94A36860E070E0E9
:103B30000E944E686A837B838C839D830E94A36866
:103B400061E070E00E944E686E837F83888799876A
:103B50000E94A36862E070E00E944E686A877B87DB
:103B60008C879D8783E089830E9425A62FC82233F6
:103B7000394B4041514409F0CEC0F801C1907F015A
:103B8000D12C0E94BCA581019601A701BC01C501F1
:103B90000E947391D1018D919C91892B09F0ABC941
:103BA0003201BFEF6B1A7B0AFE01E256FD4FC4548F
:103BB000DA4FF983E883CC5BD54085E8F501C4543E
:103BC000DA4FA881B981CC5BD54001900D928A95DE
:103BD000E1F7D501CD90DD90ED90FC90A12CB12CBA
:103BE00000E010E088248394912CC054DA4F79824D
:103BF0006882C05CD540CC53DA4F59824882C45C9D
:103C0000D540C401002E02C0880F991F0A94E2F724
:103C1000AA2797FDA095BA2F8C219D21AE21BF2107
:103C2000892B8A2B8B2B09F0E3C40F5F1F4F0330C6
:103C3000110539F7C054DA4F68807980C05CD540EF
:103C4000CC53DA4F48805980C45CD54019820E9419
:103C500034A6A4C82F37344D4642534509F05BC003
:103C6000D801CD907D01D12C0E94EFA58101960154
:103C7000A701BC01C5010E947391F101808191816E
:103C8000892B09F038C94201FFEF8F1A9F0A89E892
:103C9000F501DE01119601900D928A95E1F79E01E2
:103CA00026573F4F690159013FEFA31AB30AED8030
:103CB00029856981C351DA4F2883CD5ED540C4512F
:103CC000DA4F6883CC5ED5400E949C6D8501C3515C
:103CD000DA4F2881CD5ED540AE01465F5F4FC451BB
:103CE000DA4F6881CC5ED5400E94596D892BF9F678
:103CF0000E949C6D0E94886D8D81D6018C930E94DC
:103D000067A67101820120E830E0A401BC01C60170
:103D10000E942991F0C884E090E0F10191838083B2
:103D2000EAC8F801C1907F01D12C0E94E9A5810168
:103D30009601A701BC01C5010E947391D1018D912B
:103D40009C91892B09F0D7C84201BFEF8B1A9B0ABF
:103D50006E01EAE8CE0ED11C85E8F501D60101908E
:103D60000D928A95E1F786010B5F1F4FD6011496DD
:103D70002C9114976C91C351DA4F2883CD5ED540B6
:103D8000C451DA4F6883CC5ED5400E949C6DC3510C
:103D9000DA4F2881CD5ED540A801C451DA4F688141
:103DA000CC5ED5400E941C6D892B01F70E949C6D52
:103DB0000E94886D19820E9461A67101820120E82B
:103DC00030E0A401BC01CE0101960E94299193C864
:103DD000F801C1907F01D12C0E94CEA581019601EE
:103DE000A701BC01C5010E947391D1018D919C91E5
:103DF000892B09F080C86201BFEFCB1ADB0A0E9451
:103E0000774EFC018185928503978330910508F0F8
:103E100022C7FC01EE0FFF1FE553FB4F808191810C
:103E20009A8389830E9446A623CAF801C1907F0124
:103E3000D12C0E94B6A581019601A701BC01C50144
:103E40000E947391D1018D919C91892B09F053C8E7
:103E50003201BFEF6B1A7B0AFE01E855FC4FCC53D1
:103E6000DA4FF983E883C45CD54085E8F501CC538B
:103E7000DA4FA881B981C45CD54001900D928A9532
:103E8000E1F7D501CD90DD90ED90FC90A12CB12C07
:103E900000E010E088248394912CC454DA4F798296
:103EA0006882CC5BD540C054DA4F59824882C05CEE
:103EB000D540C401002E02C0880F991F0A94E2F772
:103EC000AA2797FDA095BA2F8C219D21AE21BF2155
:103ED000892B8A2B8B2B09F0F2C40F5F1F4F033005
:103EE000110539F7C454DA4F68807980CC5BD5402E
:103EF000C054DA4F48805980C05CD54019820E9476
:103F00002EA60C94CE16D801CD907D01D12C0E9406
:103F1000E3A581019601A701BC01C5010E9473912F
:103F2000F10180819181892B11F00C947B1785E838
:103F3000F501DE01A95CBA4F01900D928A95E1F777
:103F4000C55CDA4FE880CB53D540F12CC95CDA4F21
:103F500008811981C753D5400E944C3347E355E08F
:103F60004C0F5D1F4B5F5F4F9701B8010E94EE320F
:103F700019820E945BA60C94E615F801C1907F019E
:103F8000D12C0E94ECA581019601A701BC01C501BD
:103F90000E947391D1018D919C91892B11F00C9409
:103FA0007B176201BFEFCB1ADB0AF5011481008198
:103FB0000E949C6D212FAE014E5F5F4F602F0E94CB
:103FC000396D892BA9F70E949C6D0E94886D198319
:103FD0000E9464A64DC9F801C1907F01D12C0E94B6
:103FE000C2A581019601A701BC01C5010E94739180
:103FF000D1018D919C91892B11F00C947B1732018A
:10400000BFEF6B1A7B0A85E8F501DE01AC56BE4FA7
:1040100001900D928A95E1F7F501C080D180E28090
:10402000F380A12CB12C00E010E088248394912C23
:10403000C454DA4F79826882CC5BD540C054DA4FE1
:1040400059824882C05CD540C401002E02C0880F4E
:10405000991F0A94E2F7AA2797FDA095BA2F8C2101
:104060009D21AE21BF21892B8A2B8B2B09F0BFC448
:104070000F5F1F4F0330110539F7C454DA4F6880C2
:104080007980CC5BD540C054DA4F48805980C05C01
:10409000D54019820E943AA60C94CE16F801C19020
:1040A0007F01D12C0E94E0A581019601A701BC01EE
:1040B000C5010E947391D1018D919C91892B11F0C2
:1040C0000C947B176201BFEFCB1ADB0AF501E1808C
:1040D0008081882309F4E8C4F12C00E010E0C701D6
:1040E000002E02C0959587950A94E2F780FD73C271
:1040F0000F5F1F4F0330110591F719820E9458A6D8
:10410000B7C8F801C1907F01D12C0E948CA5810114
:104110009601A701BC01C5010E947391D1018D9147
:104120009C91892B11F00C947B176201BFEFCB1A85
:10413000DB0AF50181819281A381B4812081F401A0
:10414000211169C5EF5BFF4F008111810E947E4301
:10415000B8010E941943F401ED5BFF4F1082CE01BC
:1041600001965C0119820E9404A60C944E17D80196
:10417000CD907D01D12C0E94A4A581019601A701BB
:10418000BC01C5010E947391F10180819181892B4D
:1041900011F00C947B170E94A36860E070E00E940D
:1041A0009B676A837B838C839D830E94A36861E005
:1041B00070E00E949B676E837F83888799870E9447
:1041C000A36862E070E00E949B676A877B878C87A8
:1041D0009D8783E089830E941CA60C94E615F80154
:1041E000C1907F01D12C0E94B3A581019601A70146
:1041F000BC01C5010E947391D1018D919C91892BC5
:1042000011F00C947B173201BFEF6B1A7B0A85E823
:10421000F501DE01A35DBB4F01900D928A95E1F798
:10422000F501C080D180E280F380A12CB12C00E0A8
:1042300010E088248394912CC454DA4F79826882E8
:10424000CC5BD540C054DA4F59824882C05CD5401F
:10425000C401002E02C0880F991F0A94E2F7AA2712
:1042600097FDA095BA2F8C219D21AE21BF21892BCE
:104270008A2B8B2B09F06FC30F5F1F4F0330110583
:1042800039F7C454DA4F68807980CC5BD540C0548C
:10429000DA4F48805980C05CD54019820E942BA615
:1042A0000C94CE16D801CD907D01D12C0E9489A509
:1042B00081019601A701BC01C5010E947391F10122
:1042C00080819181892B11F00C947B17D5014D9140
:1042D0005D916D917C91C651DA4F4883CA5ED5409D
:1042E000C551DA4F5883CB5ED540C451DA4F68834D
:1042F000CC5ED540C751DA4F7883C95ED5400E9465
:10430000786AC651DA4F4881CA5ED540C551DA4F46
:104310005881CB5ED540C451DA4F6881CC5ED54020
:10432000C751DA4F7881C95ED5400E94DD69198294
:104330000E9401A60C94E615D801CD907D01D12CE8
:104340000E9492A581019601A701BC01C5010E94AE
:104350007391F10180819181892B11F00C947B176D
:104360006201FFEFCF1ADF0AD50111963C91119738
:1043700012968D919D910D90BC91A02DF501068115
:10438000E7804085518562857385C054DA4F488344
:1043900059836A837B83C05CD5401485F584468548
:1043A000578560897189C454DA4F488359836A8379
:1043B0007B83CC5BD540208121117AC39E012F5F86
:1043C0003F4F5901002369F1D401EE2009F41FC5C4
:1043D00099961D921D921D921C929C97C054DA4F83
:1043E000288139814A815B81C05CD5405D962D93DF
:1043F0003D934D935C93909781E051968C938DE122
:1044000091E19A8389839C828B820E947E4324E679
:1044100030E040E050E0B5010E941A44F401968B70
:10442000858B112371F0D401F1100BC557960D91B6
:104430001C9158970E947E43B8010E941943F401D1
:10444000128A19820E940AA60C944E17D801CD90A8
:104450007D01D12C0E9480A581019601A701BC019C
:10446000C5010E947391F10180819181892B11F026
:104470000C947B170E94FE31DC0111962C91119750
:1044800012963C91129713964C91832F90E0A0E0E6
:10449000B0E0BA2FA92F982F8827A22B842B8983CD
:1044A0009A83AB83BC830E94F8A50C94E615D801CF
:1044B000CD907D01D12C0E949BA581019601A70181
:1044C000BC01C5010E947391F10180819181892B0A
:1044D00011F00C947B170E94A36860E070E00E94CA
:1044E0008E686A837B838C839D830E94A36861E0CE
:1044F00070E00E948E686E837F83888799870E9410
:10450000A36862E070E00E948E686A877B878C8770
:104510009D8783E089830E9413A60C94E615C553FA
:10452000DA4F48805980CB5CD540C353DA4F28809E
:104530003980CD5CD540CF52DA4FA880B980C15DBB
:10454000D54019820E9452A67101820120E830E014
:10455000C952DA4F48815981C75DD540BC01C501B8
:104560000E9429910C947B176201BFEFCB1ADB0AE2
:104570000E947E438091270290912802A0912902F7
:10458000B0912A0289839A83AB83BC837E01E6E0E3
:10459000EE0EF11C00E010E00E945E4BB8010E949C
:1045A000D444D7016D937D938D939D937D010F5FCF
:1045B0001F4F0330110581F783E08D830E9443A6CE
:1045C0000C943819892B11F00C948618D301ED92B4
:1045D000FC920C9486180E940256B8010E948352E5
:1045E0000E94025640E050E0B8010E94215280CD66
:1045F000F501EE0FFF1FEE0FFF1FC454DA4F688066
:104600007980CC5BD540E60DF71D458056806780EC
:1046100070840E94A368A3019201B8010E948C6774
:104620000E9402569801220F331F820F931FDC0154
:104630008D919C91892B21F1C351DA4F2883CD5E56
:10464000D540C751DA4F3883C95ED5400E94025623
:10465000C351DA4F2881CD5ED540C751DA4F38813A
:10466000C95ED540820F931FFC0180819181DC01DE
:10467000ED91FC910484F585E02DB301A20109952B
:10468000BFEFAB1ABB0AD1CAF501EE0FFF1FEE0F49
:10469000FF1FC054DA4F68807980C05CD540E60DBA
:1046A000F71D45805680678070840E94A368A3012F
:1046B0009201B8010E94D2670E9402569801220F0F
:1046C000331F820F931FDC018D919C91892B21F167
:1046D000C351DA4F2883CD5ED540C751DA4F3883B6
:1046E000C95ED5400E940256C351DA4F2881CD5E83
:1046F000D540C751DA4F3881C95ED540820F931F2C
:10470000FC0180819181DC01ED91FC910088F189AF
:10471000E02DB301A2010995BFEFAB1ABB0A0C94BF
:10472000BA16F601EE0FFF1FEE0FFF1F72EB672E9A
:1047300074E0772E6C0E7D1EE60DF71D45805680C9
:104740000E94A368A201B8010E9462680E940256FA
:104750003801660C771C860D971DDC018D919C91AC
:10476000892B79F00E940256860D971DFC018081ED
:104770009181DC01ED91FC91008CF18DE02DB20175
:104780000995BFEFCB1ADB0A22C9F501EE0FFF1F17
:10479000EE0FFF1FAFE06A2E772473946C0E7D1E20
:1047A000E60DF71D45805680678070840E94A368DF
:1047B000A3019201B8010E943E680E94025698012E
:1047C000220F331F820F931FDC018D919C91892B47
:1047D00021F1C351DA4F2883CD5ED540C751DA4F5E
:1047E0003883C95ED5400E940256C351DA4F2881F2
:1047F000CD5ED540C751DA4F3881C95ED540820FB2
:10480000931FFC0180819181DC01ED91FC91068870
:10481000F789E02DB301A2010995BFEFAB1ABB0ADE
:104820000C949715F501EE0FFF1FEE0FFF1F79E1B6
:10483000672E72E0772E6C0E7D1EE60DF71D45800B
:104840005680678070840E94A368A3019201B8011A
:104850000E94F6670E9402569801220F331F820FB2
:10486000931FDC018D919C91892B21F1C351DA4F6B
:104870002883CD5ED540C751DA4F3883C95ED54015
:104880000E940256C351DA4F2881CD5ED540C751F0
:10489000DA4F3881C95ED540820F931FFC018081B9
:1048A0009181DC01ED91FC910288F389E02DB30147
:1048B000A2010995BFEFAB1ABB0A0C940C15F501C8
:1048C000EE0FFF1FEE0FFF1FCC53DA4F6880798089
:1048D000C45CD540E60DF71D458056806780708426
:1048E0000E94A368A3019201B8010E94AE670E94D2
:1048F00002569801220F331F820F931FDC018D9106
:104900009C91892B21F1C351DA4F2883CD5ED5408C
:10491000C751DA4F3883C95ED5400E940256C35151
:10492000DA4F2881CD5ED540C751DA4F3881C95E54
:10493000D540820F931FFC0180819181DC01ED91B4
:10494000FC910684F785E02DB301A2010995BFEF24
:10495000AB1ABB0AC2CAF501EE0FFF1FEE0FFF1F15
:10496000BDE26B2EB4E07B2E6C0E7D1EE60DF71DB6
:1049700045805680678070840E94A368A3019201DD
:10498000B8010E947D680E9402569801220F331FD1
:10499000820F931FDC018D919C91892B21F1C351D2
:1049A000DA4F2883CD5ED540C751DA4F3883C95ED0
:1049B000D5400E940256C351DA4F2881CD5ED540C2
:1049C000C751DA4F3881C95ED540820F931FFC0171
:1049D00080819181DC01ED91FC91028CF38DE02DC1
:1049E000B301A2010995BFEFAB1ABB0A45CCF50193
:1049F000EE0FFF1FEE0FFF1F24E9622E7724739442
:104A00006C0E7D1EE60DF71D458056806780708414
:104A10000E94A368A3019201B8010E941A680E9433
:104A200002569801220F331F820F931FDC018D91D4
:104A30009C91892B21F1C351DA4F2883CD5ED5405B
:104A4000C751DA4F3883C95ED5400E940256C35120
:104A5000DA4F2881CD5ED540C751DA4F3881C95E23
:104A6000D540820F931FFC0180819181DC01ED9183
:104A7000FC910488F589E02DB301A2010995BFEFEF
:104A8000AB1ABB0AF5CA82E090E0F40191838083FF
:104A90000C94E51BF301918280820C948618D3015B
:104AA0001D921C920C94861887E0E82EF12C15CBF1
:104AB000F401332309F4B7C115A216A217A210A658
:104AC000818F928FA38FB48F81E0808B85EB91E1F2
:104AD0009A8389839C828B820E947E4324E630E005
:104AE00040E050E0BE016F5F7F4F5B010E941A44BF
:104AF000D40154969C938E93539764CC019711F0F4
:104B00000C94671CD1018D919C918230910509F420
:104B1000FBC18330910509F4C4C1019711F00C94D5
:104B2000671CF6012081318142815381C351DA4FE4
:104B30002883CD5ED540C751DA4F3883C95ED54052
:104B4000C651DA4F4883CA5ED540C551DA4F588303
:104B5000CB5ED5400E940256C351DA4F2881CD5E0C
:104B6000D540C751DA4F3881C95ED540C651DA4FBA
:104B70004881CA5ED540C551DA4F5881CB5ED540D9
:104B8000B3010E94F5520C94671C0E940256F30177
:104B9000EE0FFF1FE80FF91F0081118101151105AC
:104BA00011F40C946F1CD801ED90FC9020E030E0E3
:104BB0004AE754E4F50160817181828193810E940A
:104BC00036A90E94F8A7AB01BC01D7019296ED91DE
:104BD000FC919397C8010995C653DA4FB881CA5C16
:104BE000D540BB2311F40C946F1CF201808191819C
:104BF000D801ED91FC9104A0F5A1E02D8130910543
:104C000009F424C2029709F41BC261E070E0C801F4
:104C100009950C946F1CFD9680839183A283B383C6
:104C2000369681E0808381E19BE09A8389839C8230
:104C30008B820E947E4324E630E040E050E0BE01DB
:104C40006F5F7F4F5B010E941A44F401EF5BFF4FDF
:104C50009183808387CA80E090E0E2C882E393E199
:104C60009A8389839C828B820E940256FE01319630
:104C70005F01BF010E9489520C94BD178AEE9EE02D
:104C80009A8389839C828B820E940C4DFE0131960F
:104C90005F01AF0160E070E00E94764C81E29DE030
:104CA0009A8389839C828B820E940C4DA50161E0CE
:104CB00070E00E94764C8EED9CE09A8389839C8202
:104CC0008B820E940C4DA50162E070E00E94764C40
:104CD0000C944B17D1018D919C918130910509F471
:104CE000DAC0029711F00C94671CD6012D913D910A
:104CF0004D915C91CD52DA4F288339834A835B838F
:104D0000C35DD5400E945E4BB3010E94D4449B0119
:104D1000AC01CD52DA4F688179818A819B81C35D74
:104D2000D5400E9423A79B01AC01C351DA4F2883D1
:104D3000CD5ED540C751DA4F3883C95ED540C651E4
:104D4000DA4F4883CA5ED540C551DA4F5883CB5EEF
:104D5000D5400E940256C351DA4F2881CD5ED5401E
:104D6000C751DA4F3881C95ED540C651DA4F488104
:104D7000CA5ED540C551DA4F5881CB5ED540B301EC
:104D80000E945F550C94671CD1018D919C918230DB
:104D9000910509F421C18330910509F4E9C0019717
:104DA00011F00C94671CF6012081318142815381FE
:104DB000C351DA4F2883CD5ED540C751DA4F3883CF
:104DC000C95ED540C651DA4F4883CA5ED540C55149
:104DD000DA4F5883CB5ED5400E940256C351DA4F5A
:104DE0002881CD5ED540C751DA4F3881C95ED540A4
:104DF000C651DA4F4881CA5ED540C551DA4F588155
:104E0000CB5ED540B3010E9478530C94671C559635
:104E10006D907C9056970E947E43B3010E94194387
:104E2000F401118AFECAA388B4880E947E43B501AA
:104E30000E941943D40150961C92FE0131965F01E5
:104E4000C1CA9D961D921D921D921C92D097C4546A
:104E5000DA4F288139814A815B81CC5BD5409196BC
:104E60002D933D934D935C93949781E052968C9350
:104E700085E890E19A8389839C828B820E947E439D
:104E800024E630E040E050E0B5010E941A44F4010D
:104E9000908F878BD6CAF601208131814281538160
:104EA00044CF0E940256B3010E948352F6016081F2
:104EB0007181828193810E94F3A7AB01BC01C6512D
:104EC000DA4F4883CA5ED540C551DA4F5883CB5E6E
:104ED000D540C451DA4F6883CC5ED540C751DA4F14
:104EE0007883C95ED5400E940256C651DA4F488188
:104EF000CA5ED540C551DA4F5881CB5ED540B3016B
:104F00000E9421520C94671CD6012D913D914D9128
:104F10005C91C351DA4F2883CD5ED540C751DA4F3B
:104F20003883C95ED540C651DA4F4883CA5ED54042
:104F3000C551DA4F5883CB5ED5400E940256C3510B
:104F4000DA4F2881CD5ED540C751DA4F3881C95E2E
:104F5000D540C651DA4F4881CA5ED540C551DA4FB7
:104F60005881CB5ED540B3010E944D530C94671C11
:104F7000F6012081318142815381C351DA4F288368
:104F8000CD5ED540C751DA4F3883C95ED540C65192
:104F9000DA4F4883CA5ED540C551DA4F5883CB5E9D
:104FA000D5400E940256C351DA4F2881CD5ED540CC
:104FB000C751DA4F3881C95ED540C651DA4F4881B2
:104FC000CA5ED540C551DA4F5881CB5ED540B3019A
:104FD0000E9435540C94671CD6012D913D914D9142
:104FE0005C91C351DA4F2883CD5ED540C751DA4F6B
:104FF0003883C95ED540C651DA4F4883CA5ED54072
:10500000C551DA4F5883CB5ED5400E940256C3513A
:10501000DA4F2881CD5ED540C751DA4F3881C95E5D
:10502000D540C651DA4F4881CA5ED540C551DA4FE6
:105030005881CB5ED540B3010E940A540C94671C82
:1050400060E070E0C80109950C946F1C62E070E0AC
:10505000C80109950C946F1C2F923F924F925F925A
:105060006F927F928F929F92AF92BF92CF92DF9278
:10507000EF92FF920F931F93CF93DF93CDB7DEB7DD
:10508000CE51D4400FB6F894DEBF0FBECDBF3C0169
:105090007B01DB011A962C911A9727FD7DC12430E4
:1050A00009F499C2FB01858987FD1AC0C25EDB4FF6
:1050B0000FB6F894DEBF0FBECDBFDF91CF911F9129
:1050C0000F91FF90EF90DF90CF90BF90AF909F90A7
:1050D0008F907F906F905F904F903F902F900895AA
:1050E0006E01F6EACF1AFCEFDF0A86E8D6011D92C0
:1050F0008A95E9F7FB0160817181E18D8E2F90E047
:1051000095958795959587958370823009F432C37C
:10511000833009F02CC348E050E0E295E695E6952F
:10512000E370E23009F420C3E33009F01AC328E049
:1051300030E06B507109641B750B621B730B970198
:10514000235E3F4F823009F409C3833009F003C363
:1051500088E090E0820F931F0296E23009F4F8C2D3
:10516000E33009F0F2C228E030E0820F931F02968C
:105170000E941C94CA5FDB4F2883C650D440C95F8D
:10518000DB4F3883C750D440C85FDB4F4883C850DB
:10519000D440C75FDB4F5883C950D440C65FDB4F54
:1051A0006883CA50D440C55FDB4F7883CB50D4406E
:1051B000C45FDB4F8883CC50D440C35FDB4F988300
:1051C000CD50D440A60163E673E0CE018A5F9B4FC9
:1051D0000E94189A882309F4B0C2D60111960D9145
:1051E0001D912D913C9114978BE0F7013D96DE01C6
:1051F000A550BC4F01900D928A95E1F78BE0FE011E
:10520000E550FC4FDE01A052BC4F01900D928A95F3
:10521000E1F7BB24B394C551DC4FB882CB5ED340D9
:10522000C451DC4F088319832A833B83CC5ED3406F
:10523000F7018285882309F4A3C2823009F036CFB2
:10524000F301808181112CC58E010F5F1F4F89E210
:10525000D8011D928A95E9F7F601658170E0C601D3
:1052600006960E941C94CC5CDD4F2883C453D24028
:10527000CB5CDD4F3883C553D240CA5CDD4F4883D9
:10528000C653D240C95CDD4F5883C753D240C85C77
:10529000DD4F6883C853D240C75CDD4F7883C95364
:1052A000D240C65CDD4F8883CA53D240C55CDD4F17
:1052B0009883CB53D240A80163E973E0CE018C5CA4
:1052C0009D4F0E94189A882309F437C28981882348
:1052D00009F45EC58E010E5F1F4FE12CF12C0BC04F
:1052E000FFEFEF1AFF0A0B5F1F4F898190E0E8166E
:1052F000F9060CF0DBCE0E94CB42BC016354764F22
:10530000C8010E94D2AC892B59F78BE0FE01E05214
:10531000FC4FDE01A051BC4F01900D928A95E1F740
:105320000E94CB42C051DC4FC880C05FD340CF50F9
:10533000DC4FD880C15FD340CE50DC4FE880C25FE5
:10534000D340CD50DC4FF880C35FD340CC50DC4F0E
:105350000881C45FD340CB50DC4F1881C55FD34078
:10536000CA50DC4F2881C65FD340C950DC4F38811A
:10537000C75FD340C850DC4F4881C85FD340C75097
:10538000DC4F5881C95FD340C650DC4F6881CA5F8B
:10539000D3400E94A13F8ACE5596DC9048E050E071
:1053A000635F7F4FCE0180529C4FC25EDB4F2883EC
:1053B000CE51D4400E94E2AC8E0109531D4F83E9C7
:1053C000F80111928A95E9F795E0FE01E052FC4F51
:1053D000D80101900D929A95E1F7C25EDB4F2881CA
:1053E000CE51D44040E8420F50E060E070E0D80178
:1053F00015964D935D936D937C9318978D2D90E04A
:10540000A0E0B0E0F80181879287A387B487D70135
:105410006D917C9111975996EC918E2F90E0959516
:105420008795959587958370823009F456C28330AD
:1054300009F4A3C140E050E0E295E695E695E370FB
:10544000E23009F456C2E33009F050C228E030E0FF
:105450006B507109641B750B621B730BBDE1EB0E86
:10546000F11C823009F43FC2833009F039C288E070
:1054700090E0E80EF91EF2E0EF0EF11CE23009F4C4
:1054800029C2E33009F023C288E090E08E0D9F1D11
:1054900002960E941C94C65ADC4F2883CA55D340FA
:1054A000C55ADC4F3883CB55D340C45ADC4F4883B0
:1054B000CC55D340C35ADC4F5883CD55D340C25A44
:1054C000DC4F6883CE55D340C15ADC4F7883CF552B
:1054D000D340C05ADC4F8883C056D340CF59DC4FED
:1054E0009883C156D340A801435F5F4F63E673E0E2
:1054F000CE01865A9C4F0E94189A882309F41DC138
:10550000D3015396CD90DC9054974E01BCEC8B1A8E
:10551000BDEF9B0A83E9F801D40101900D928A95B1
:10552000E1F7FE0131965F0182E391E0DF01FC01CA
:105530001D923197E9F781E090E09A838983C35502
:10554000DF4F8883CD5AD040E8EBF4E012E720E04B
:1055500030E0A90101C01191A5E6B0E00E94A8A623
:105560009B01AC01210F311D411D511D84E0EA3C1E
:10557000F80789F7C255DF4F288339834A835B8355
:10558000CE5AD040C051DC4F19821882C05FD34040
:105590000E948BA6DE01A051BC4F7D018E010E54EE
:1055A0001F4F20E830E0AE014D545F4FBC01C401F5
:1055B0000E942991C051DC4F88819981C05FD340FE
:1055C000892B09F499C10E94FE314FEF50E06FEF33
:1055D0000E9469316BCD0E94CE87DC01ED91FC9178
:1055E0000190F081E02DB701099560CD882309F481
:1055F000B8C11D964D915D916D917C915097C451AC
:10560000DC4F88819981AA81BB81CC5ED340481749
:1056100059076A077B0709F0EAC08BE0FE01E052F8
:10562000FC4FD301119601900D928A95E1F7D401B8
:1056300014968D919C911597019709F467C3F30116
:10564000218832888CE8F401DE01A953BD4F019016
:105650000D928A95E1F79E012F5F3F4F590182E33A
:1056600091E0D901FC011D923197E9F7F1E0C855AD
:10567000DF4FF883C85AD040C953DD4F88819981E4
:10568000AA81BB81C75CD240C755DF4F888399830D
:10569000AA83BB83C95AD040FB83C553DD4F8880A2
:1056A0009980CB5CD24021E08216910409F4E9C2D2
:1056B00032E08316910409F4CCC2892809F4B3C2FC
:1056C00082E090E09D838C8331E03F8F83E090E027
:1056D00099A388A3AE0140515C4F2A01CE018D5C95
:1056E0009E4F3C010E94269172018E010D5C1D4F60
:1056F00020E031E0A301BC01C5010E942991D20143
:105700008D919C91892BC9F4CD5CDD4F4881C353A9
:10571000D24050E0D101ED91FC91309709F4C6CC14
:10572000B301D10112968D919C9113970995F201C5
:1057300080819181892B09F4B9CC0E94FE314FEF11
:1057400050E060E00E946931B1CC20E030E00DCD46
:1057500022E030E00ACD80E090E0FCCC82E090E0F6
:10576000F9CC20E030E0E5CC22E030E0E2CC40E0D3
:1057700050E0D3CC42E050E0D0CC48E050E05CCEEA
:10578000D6011596EC90F12C0E942391A6014A5F58
:105790005F4F4E01BCEC8B1ABDEF9B0A8E01025F7E
:1057A0001B4F9701BC01C4010E947391C25FDB4F84
:1057B00088819981CE50D440892B09F0BECFF30166
:1057C0008081811108C0D40114968D919C91159708
:1057D000892B09F409C2D3011C968C911C97C551E1
:1057E000DC4F9881CB5ED340891709F4FFCEF301DB
:1057F0008081882331F0F40184819581892B09F41B
:1058000068C2F301A188B288F40180819181A281EC
:10581000B3819E012F5F3F4F690122E331E0F60122
:10582000A901119241505040E1F741E04B8322E041
:1058300030E03D832C834F8F25E030E039A328A34F
:10584000C855DF4F4883C85AD040C755DF4F8883BB
:105850009983AA83BB83C95AD0400E942691DE0156
:10586000A953BD4F7D018E010D5C1D4F20E031E03D
:10587000AE014D5C5E4FBC01C6010E942991C95327
:10588000DD4F88819981C75CD240892B09F055CFC3
:10589000CD5CDD4F4881C353D24050E0D501ED913E
:1058A000FC91309709F402CCBE016D5C7E4FD501AE
:1058B00012968D919C9113970995C953DD4F88815C
:1058C0009981C75CD240892B09F4F0CB36CF80E0B8
:1058D00090E0DCCD82E090E0D9CD42E050E0ACCD6C
:1058E00080E090E0C6CD82E090E0C3CD20E030E0E3
:1058F000AFCD22E030E0ACCD0E9426910F571E4F75
:1059000020E031E0AE014D5C5E4FBC01C5010E945C
:105910002991C051DC4F88819981C05FD340892B88
:1059200009F051CECD5CDD4F4881C353D24050E0E9
:10593000D601ED91FC91309709F4B8CBBE016D5CB6
:105940007E4FD60112968D919C9113970995C05167
:10595000DC4F88819981C05FD340892B09F4A6CBA5
:1059600032CEF301F181CD5EDB4FF883C351D440D9
:10597000D3011396BC91C75EDB4FB883C951D440A5
:10598000F301F481C65EDB4FF883CA51D440D301E2
:1059900012968C91E82FF0E0CC5EDB4FF983E88320
:1059A000C451D440C65EDB4F2881CA51D44030E098
:1059B00040E050E060E070E080E090E008E10E94AC
:1059C000B3A62901D42E352EF62EB72FCD5EDB4F90
:1059D000F881C351D4404F2AB2648265C05FDB4F67
:1059E0008883C051D4409264CF5EDB4F9883C1510D
:1059F000D440C75EDB4F2881C951D44030E040E03D
:105A000050E060E070E080E090E000E10E94B3A62A
:105A1000C35EDB4F2883CD51D440532AD42A352A84
:105A2000F62AB72BC05FDB4FA881C051D440A82B0A
:105A3000C05FDB4FA883C051D440CF5EDB4FE8810D
:105A4000C151D440E92BCF5EDB4FE883C151D44034
:105A5000C052DC4FF881C05ED340CA5EDB4FF88392
:105A6000C651D440CE51DC4FA881C25ED340C55E42
:105A7000DB4FA883CB51D440CD51DC4FE881C35ECE
:105A8000D340C45EDB4FE883CC51D440CF51DC4FD0
:105A90008881C15ED340E82FF0E0C95EDB4FF98317
:105AA000E883C751D440C45EDB4F2881CC51D44039
:105AB00030E040E050E060E070E080E090E008E13D
:105AC0000E94B3A65901C42E252EE62EA72FCA5E2A
:105AD000DB4FF881C651D440AF2AA2648265CE5E06
