:100000000C942C010C944B010C944B010C944B015F
:100010000C944B010C944B010C944B010C944B0130
:100020000C944B010C944B010C944B010C944B0120
:100030000C944B010C944B010C944B010C944B0110
:100040000C944B010C944B010C944B010C944B0100
:100050000C944B010C944B010C944B010C944B01F0
:100060000C944B010C94D82F0C944B010C944B0125
:100070000C944B010C9434020C944B010C944B01E6
:100080000C944B010C944B010C944B010C944B01C0
:100090000C942A300C944B010C944B010C94506E30
:1000A0000C944B010C944B010C944B010C944B01A0
:1000B0000C944B010C944B010C944B010C94CF43CA
:1000C0000C944B010C944B010C944B010C944B0180
:1000D0000C944B010C944B010C944B010C944B0170
:1000E0000C944B010C944B010C944B010C94C23CAE
:1000F0000C94793E0C944B010C944B010C94853C70
:100100000C944B010C944B010C944B010C944B013F
:100110000C944B010C944B010C944B010C944B012F
:100120009A853E85E4848E840E840584A9835B834E
:10013000AF8352833E83F48505A84CCDB2D44EB92B
:100140003836A9020C50B9918688083CA6AAAA2A7A
:10015000BE000000803F6E616E00696E6600004068
:100160007A10F35A00A0724E18090010A5D4E800C6
:1001700000E87648170000E40B54020000CA9A3BDE
:10018000000000E1F5050000809698000000404264
:100190000F000000A08601000000102700000000F2
:1001A000E803000000006400000000000A000000F6
:1001B00000000100000000002C76D888DC674F08A2
:1001C00023DFC1DFAE59E1B1B796E5E3E453C63AA8
:1001D000E651997696E8E6C28426EB898C9B62ED1F
:1001E000407C6FFCEFBC9C9F40F2BAA56FA5F490D9
:1001F000055A2AF75C936B6CF9676DC11BFCE0E450
:100200000D47FEF520E6B500D0ED902E03009435A5
:1002100077050080841E080000204E0A000000C8F8
:100220000C333333330F986E12831141EF8D211449
:10023000893BE65516CFFEE6DB18D1844B381BF719
:100240007C1D901DA4BBE424203284725E228100B8
:10025000C9F124ECA1E53D2711241FBECFEFD1E465
:10026000DEBFCDBF1EE0A0E0B2E0EAECF7E601E0C1
:100270000BBF02C007900D92A831B107D9F72DE14D
:10028000A8E1BEE001C01D92A33DB207E1F70E94C4
:100290002C080C94E3B30C94000008950895E82F03
:1002A000F0E0E05CFE4F60830895E82FF0E0E05C52
:1002B000FE4F80810895E82FF0E0E05CFE4F8081E2
:1002C0006823862F90E002C0959587954A95E2F7BE
:1002D0000895922FE82FF0E0E05CFE4F262F209546
:1002E00080818223292F01C0220F4A95EAF7262315
:1002F000282B2083089587FD8FE780938001482F66
:1003000050E081E891E00C94CAB2EF92FF921F9303
:10031000CF93DF937A0110917B01161708F4612FB8
:10032000C62FD0E0AE0160E871E00E94CAB2C058AA
:10033000DE4F8881F7018083812FDF91CF911F915C
:10034000FF90EF900895FF920F931F93CF93DF9349
:100350008C01F62EEA01209751F047E060E886E034
:100360000E945B0191E0813009F090E0988340E0C9
:1003700050E06F2DC801DF91CF911F910F91FF9039
:100380000C948501CF92DF92FF920F931F93CF932E
:10039000DF938C01F62E6A01E901209751F047E0C6
:1003A00060E886E00E945B0191E0813009F090E016
:1003B0009883A6016F2DC801DF91CF911F910F91F6
:1003C000FF90DF90CF900C94850180917B01089580
:1003D000FA01282F30E0A901460F511D4038510580
:1003E0001CF09FE7692F681B462F50E0BF01C90131
:1003F00080589E4F0C94CAB2FA01282F30E0A90110
:10040000460F511D4038510514F06FE7681B462F09
:1004100050E0B90160587E4FCF010C94CAB20E94DF
:1004200090330E94D932FC0180818230C1F08DEC82
:100430009CECACECBFE320EC20937C0010927B00A2
:100440002FEE20937A008093280E9093290EA0938C
:100450002A0EB0932B0E81E080932C0E089580E03D
:1004600090E0A0EABFE3E7CF1F920F920FB60F9282
:1004700011240BB60F921F932F933F934F935F93CB
:100480006F937F938F939F93AF93BF93CF93DF939C
:10049000EF93FF9380910B028F5F80930B02833069
:1004A00008F442C010920B02D091780010917900AC
:1004B000C0910A0280912C0E8823E1F18C2FC83064
:1004C00060F4EC2FF0E0EE0FFF1FE85EF14F1370C9
:1004D0002D2F30E0312B318320838F5F883038F52A
:1004E00080930A0280917C00807E80937C009091B2
:1004F0007C0080910A02892B80937C00FF91EF9110
:10050000DF91CF91BF91AF919F918F917F916F912B
:100510005F914F913F912F911F910F900BBE0F90C4
:100520000FBE0F901F9018958111E8CFBDCF10928C
:100530000A02D8CF0E940F0280910A02C0CF683011
:10054000710540F4660F771FFC01E60FF71F8081ED
:100550009181089580E090E00895CF93DF93683013
:100560007105D8F4FB01EC01EE0FFF1FEC0FFD1F2E
:100570006081718180E090E00E940BAE288939890A
:100580004A895B890E9424AF20E030E040E85AE3CA
:100590000E9424AFDF91CF91089560E070E0CB011D
:1005A000DF91CF91089580912C0E811102C00E949D
:1005B0000F0288E19EE00895DA011496ED91FC9116
:1005C0001597309739F0AB01BC0116968D919C912F
:1005D0001797099408956115710529F021E030E01D
:1005E000DB012D933C93DA01ED91FC91119730974B
:1005F00031F0682F12968D919C911397099580E0A8
:1006000090E008950895089508950895089508952F
:1006100008950895DC01ED91FC910480F581E02DB1
:1006200009940C94E54E0C94404E0C94DD550C94BA
:100630003952CF93DF9300D0CDB7DEB79E012F5F45
:100640003F4F08960E940C920F900F90DF91CF9130
:1006500008950F931F9300E010E020E030E040E0A9
:1006600050E008960E94828E1F910F9108952F925C
:100670003F924F925F926F927F928F929F92AF9232
:10068000BF92CF92DF92EF92FF920F931F93CF937F
:10069000DF93CDB7DEB7C657D6400FB6F894DEBFAE
:1006A0000FBECDBF6C015A01CE018B5C9C4F0E94E6
:1006B000CAB2CB5CDB4FA882C553D440D601CD90E3
:1006C000DC9081E091E0FE01EB5CFC4FDE01AC5C74
:1006D000BD4F01900D920197E1F70E94A9929501FB
:1006E00033278E010F58194FAE014C5C5D4FBC0192
:1006F000CE018D519A4F0E94F192CF58D94F8881E7
:100700009981C157D640892B09F10E9444324FEF9D
:1007100050E060E00E94AF31CA58D94F0FB6F8944C
:10072000DEBF0FBECDBFDF91CF911F910F91FF9024
:10073000EF90DF90CF90BF90AF909F908F907F9081
:100740006F905F904F903F902F9008958CE8FE013E
:10075000ED51FA4FDE01A95ABA4F01900D928A95D8
:10076000E1F7FE0131964F0182E391E0DF01FC01E8
:100770001D923197E9F781E0C855DF4F8883C85A49
:10078000D040C95ADA4F488159816A817B81C75567
:10079000D540C755DF4F488359836A837B83C95A45
:1007A000D0408B83C55ADA4F28813981CB55D5404B
:1007B0002130310509F4A0C02230310509F441C0CF
:1007C000232B09F4A7C022E030E03D832C838F8FD8
:1007D00083E090E099A388A3FE01E159F94F5F01FE
:1007E0009E012D5C3E4F39010E94AC9275018E0135
:1007F0000D5C1D4F20E031E0A301BC01C4010E944B
:10080000AF92D5018D919C91892B09F07ECFCD5C63
:10081000DD4F4881C353D24050E0D601ED91FC91A9
:10082000309709F479CFB301D60112968D919C913E
:1008300013970995F50180819181892B09F46CCF7B
:1008400064CFC35ADA4F9881CD55D540992309F426
:10085000BCCFC25ADA4F88819981AA81BB81CE551B
:10086000D5408D3938E1930739EFA3073FEBB30744
:1008700009F4E8C008F470C0803CE3E29E07E3E7B7
:10088000AE07E0EDBE0709F48BC183309441AC4A5A
:10089000BD4D09F07AC1CE59DA4F4880C256D540D5
:1008A000512C0E949AA85E0121E9A21A29EFB20AEE
:1008B0003E013DEC631A3EEF730A8501920147E564
:1008C00055E04C0F5D1F445F5F4FBC01C3010E94A8
:1008D000F192D5012D913C9111972115310509F423
:1008E00002C2922F832F22E030E03D832C8321E04F
:1008F0002F8F98A389A378CF22E030E03D832C830B
:100900008F8FCE018159994F5C01DE01AD5CBE4FE6
:100910003D016ACF8E8383E090E0A0E0B0E08B875A
:100920009C87AD87BE8781E090E0A0E0B0E08F8B30
:10093000988FA98FBA8F82E090E0A0E0B0E08B8F13
:100940009C8FAD8FBE8F9E012159394F5901AE0149
:100950004D5C5E4F3A0148CF8F3D904EAD4EBF4645
:1009600009F013C1CE59DA4F4880C256D540512CF8
:100970000E949DA85E01B1E9AB1AB9EFBB0A3E0126
:10098000EDEC6E1AEEEF7E0A8501920147E555E027
:100990004C0F5D1F445F5F4FBC01C3010E94F19289
:1009A000D5012D913C912115310509F09ACF0E9476
:1009B000A24F27E133E0CA5CDB4F39832883C6535B
:1009C000D440C85CDB4F99838883C853D4400E94CD
:1009D0005D4428EE33E040E050E0BE016A5C7B4FAE
:1009E0000E94F544CA5CDB4F1882C653D4400E9473
:1009F000A9A875018E01095D1F4F20E830E0AE0106
:100A0000485D5F4FBC01CE018A5C9B4F0E94AF9254
:100A1000D5012D913C912115310509F062CF83E07C
:100A200090E09D838C8381E08AA3C25ADA4F88814B
:100A30009981AA81BB81CE55D5408BA39CA3ADA340
:100A4000BEA3D2CECE59DA4F4880C256D540512CE3
:100A50000E94A0A85E01B1E9AB1AB9EFBB0A3E0142
:100A6000EDEC6E1AEEEF7E0A8501920147E555E046
:100A70004C0F5D1F445F5F4FBC01C3010E94F192A8
:100A8000D5012D913C912115310509F02ACF1E0188
:100A9000BAEC2B1ABBEF3B0A83E9F301D1010190B9
:100AA0000D928A95E1F780911602882309F442C0DD
:100AB000F10185858823F1F1468557856089718923
:100AC000F60184819581A681B781481759076A0785
:100AD0007B0781F14483558366837783CD58D94F53
:100AE0004883C357D640CC58D94F5883C457D640B3
:100AF000CB58D94F6883C557D640CA58D94F788349
:100B0000C657D6400E94A143CD58D94F4881C357FC
:100B1000D640CC58D94F5881C457D640CB58D94F1E
:100B20006881C557D640CA58D94F7881C657D64034
:100B30000E94FA42F10181859285A385B4858038AF
:100B40009105A105B10508F4DDC080E090E0DC016D
:100B500023E030E0FE01E753FB4F2F01F201318328
:100B6000208382839383A483B5830E94ACA87501FC
:100B70008E01095D1F4F20E830E0AE01485D5F4FF8
:100B8000BC01C2010E94AF9243CF94E080E0FE011D
:100B9000E159F94F5F019E012D5C3E4F3901A3CE13
:100BA000CE59DA4F4880C256D540512C0E94A3A896
:100BB0005E01F1E9AF1AF9EFBF0A3E012DEC621AAE
:100BC0002EEF720A8501920147E555E04C0F5D1F3B
:100BD000445F5F4FBC01C3010E94F192D5012D918A
:100BE0003C912115310509F07CCE2E01B7E34B1A5B
:100BF000BBEF5B0A8EE8F301D20101900D928A955A
:100C0000E1F780911602882309F442C0F201808541
:100C10008823F1F14185528563857485F6018481CD
:100C20009581A681B781481759076A077B0781F12B
:100C30004483558366837783CD58D94F4883C35700
:100C4000D640CC58D94F5883C457D640CB58D94FEB
:100C50006883C557D640CA58D94F7883C657D640FF
:100C60000E94A143CD58D94F4881C357D640CC5894
:100C7000D94F5881C457D640CB58D94F6881C557F2
:100C8000D640CA58D94F7881C657D6400E94FA42FA
:100C9000F20184819581A681B78180389105A105F3
:100CA000B10508F45EC080E090E0DC0123E030E0B4
:100CB000FE01EA5CFB4F1F01F10131832083828337
:100CC0009383A483B5830E94AFA875018E01095D4B
:100CD0001F4F20E830E0AE01485D5F4FBC01C1010D
:100CE0000E94AF9295CE8CE0EFE3F4E0A953B240BE
:100CF00001900D928A95E1F70E94A6A8750108540B
:100D000016407BCE2E01F7E34F1AFBEF5F0AD101AD
:100D100015968C91F201808783E090E0928781871D
:100D200048E050E0B101C2010E94EAB2D201179638
:100D30001C920E94A143DC01ED91FC919101235F83
:100D40003F4FD10119966C9160580190F081E02DD0
:100D5000A2010995092E000CAA0BBB0B20E030E084
:100D6000FDCE1E01FAEC2F1AFBEF3F0A88E0EBE400
:100D7000F4E0D10101900D928A95E1F782E090E0D4
:100D8000D1011A969C938E931997F201808118963F
:100D90008C930E94A143DC01ED91FC919201285FAC
:100DA0003F4FD20114966C9160580190F081E02D74
:100DB000A1010995092E000CAA0BBB0B20E030E025
:100DC0007BCF4115510509F408950C9437038091A8
:100DD000140280FD12C00E94443240E050E060E006
:100DE0000E94AF3180911402909115020196909368
:100DF00015028093140281E008950E9444324FEF5F
:100E000050E060E00E94AF31EDCF0C94E706E1E6E0
:100E1000F0E080E88083108278940E94443240E0C1
:100E200050E86FEF0E94AF310895CF92DF92EF92BA
:100E3000FF92CF93DF9300D000D000D0CDB7DEB7C4
:100E40001E821D820E9490330E940533FC01C080E7
:100E5000D180E280F380F1E0CF16D104F2E0EF061A
:100E6000F10408F06EC0C114D104E104F10409F4E6
:100E70002DC08D819E8140E050E0BA016BBFFA0128
:100E800027919227092E0294202D2F702927392F80
:100E90003025330F307E2327302D3927307F36958C
:100EA000092E000C331F9695969596959F71932762
:100EB0009827822F4F5F5F4F6F4F7F4F4C155D0517
:100EC0006E057F0509F0DACF9E838D830E949033F3
:100ED0000E94FA32FC01208131818D819E81281788
:100EE000390719F10E9444324FEF50E060E00E9450
:100EF000AF310E94903322E030E0AE014B5F5F4F94
:100F000066E274E00E94323380911602811129C09A
:100F100026960FB6F894DEBF0FBECDBFDF91CF91FE
:100F2000FF90EF90DF90CF90089580911602882374
:100F300081F00E9444324FEF5FEF6FEF0E94AF31BC
:100F4000E7CF0E9444324FEF50E060E00E94AF31A3
:100F5000DFCF0E94443240E05FEF6FEF0E94AF317D
:100F6000D7CF85E097E09A8389831C821B820E94F9
:100F70005D442AEF30E040E050E0BE016F5F7F4FFC
:100F80000E94F544C5CFCF92DF92EF92FF920F936C
:100F90001F93CF93DF93CDB7DEB7C159D1090FB6F9
:100FA000F894DEBF0FBECDBF8C017A01DC018C91BD
:100FB0008823C1F1FE0131966F0186E8DF011D92A1
:100FC0008A95E9F741385105E8F5CE0107960E9468
:100FD000CAB2EE82F8018485898385859685A785C6
:100FE000B0898A839B83AC83BD838BE03196DE011D
:100FF000A957BF4F01900D928A95E1F781E8C1573B
:10100000DF4F8883CF58D0400E94A143DC01ED918F
:10101000FC910190F081E02D9601AE0149575F4FA0
:1010200060E00995CF56DF4F0FB6F894DEBF0FBED4
:10103000CDBFDF91CF911F910F91FF90EF90DF9087
:10104000CF9008950E9444324FEF50E060E00E943C
:10105000AF31E8CF0C94C307CF93DF93CDB7DEB7A2
:10106000CF5CD5410FB6F894DEBF0FBECDBF0E9456
:1010700007070E94A1430E94D3020E94006F0E94B2
:101080008D6B0E94F06F0E94150720E034E843E06A
:1010900050E061E070E0CE018E5A9C4E0E947C30A0
:1010A000CE018E5A9C4E0E94F5301A8219821C8203
:1010B0001B821E821D8218861F821D861C861F862B
:1010C0001E86CE0109960E94FD8D8E010F5F1F4F77
:1010D000A8016CED72E0CE0109960E94528E980133
:1010E0004BEE52E060E070E0CE0109960E945B8E0C
:1010F000C45ADA4E19830883CC55D54189E293E06E
:10110000C65ADA4E99838883CA55D54122E533E120
:101110002C0F3D1F3C832B838AE093E09A838983C5
:1011200030933F0F20933E0F10933D0E00933C0EE3
:10113000CE018E539A4EDC0114961D921D921D9283
:101140001C92179713961C930E93129729E133E084
:101150002D933C93FE01E253FA4E91838083F887EE
:10116000EF8321EE36E03E832D83C759DA4E198294
:101170001882C956D541C559DA4E19821882CB5604
:10118000D541C359DA4E19821882CD56D541C1597D
:10119000DA4E19821882CF56D541CF58DA4E1982CD
:1011A0001882C157D541CD58DA4E19821882C357DB
:1011B000D541CB58DA4E19821882C557D541C95846
:1011C000DA4E19821882C757D541C758DA4E1882AD
:1011D000C957D541C658DA4E1882CA57D541C558A5
:1011E000DA4E1882CB57D541C455DA4E1882CC5A04
:1011F000D54104551A4ED8011D9228E0EBE4F4E0E5
:1012000001900D922A95E1F7F801118622E030E075
:1012100033872287148629E635E12C0F3D1F328B58
:10122000218B948B838B30933B0E20933A0E9093BB
:10123000390E8093380E1093370E0093360E0E94AD
:10124000A143DC01ED91FC910480F581E02D20E7C4
:1012500038E2C653DA4E39832883CA5CD541C45379
:10126000DA4E19830883CC5CD541BE0166537A4EB1
:101270000995C559DA4E19830883CB56D5418AE2C0
:1012800098E0C759DA4E99838883C956D5410E94A0
:10129000134F7C010E94E24EC159DA4E1983088334
:1012A000CF56D54123E53EE0C359DA4E3983288332
:1012B000CD56D541CD58DA4E99838883C357D54151
:1012C00083E193E0CF58DA4E99838883C157D541A3
:1012D000C958DA4EF982E882C757D54181E193E0D7
:1012E000CB58DA4E99838883C557D541C653DA4E19
:1012F00039832883CA5CD541C453DA4E19830883E5
:10130000CC5CD5410E94374EAE0146535A4E60E048
:1013100070E00E949F4DCF58DA4E88819981C15765
:10132000D541C653DA4E99838883CA5CD541CD58DE
:10133000DA4E88819981C357D541C453DA4E9983D7
:101340008883CC5CD5410E94374EAE0146535A4E3D
:1013500061E070E00E949F4DCB58DA4E8881998100
:10136000C557D541C653DA4E99838883CA5CD541A7
:10137000C958DA4E88819981C757D541C453DA4E8E
:1013800099838883CC5CD5410E94374EAE01465389
:101390005A4E62E070E00E949F4D809116028111CA
:1013A0001BC00E94725725E133E0C653DA4E3983E1
:1013B0002883CA5CD541C453DA4E99838883CC5CB8
:1013C000D5410E945D442AE030E040E050E0BE019B
:1013D00066537A4E0E94F544CA5ADC4E2881398100
:1013E000C655D341C85ADC4E88819981C855D3412E
:1013F0002817390709F442C02FB7F894CA5ADC4EAF
:1014000048815981C655D341C85ADC4E888199819B
:10141000C855D3414817590779F1CA5ADC4EE881BB
:10142000F981C655D341F17082E593E18C0F9D1F80
:10143000E80FF91F34966481CA5ADC4E888199817D
:10144000C655D34101969370CA5ADC4E998388835E
:10145000C655D3412FBFC65ADA4EE881F981CA5525
:10146000D541309709F4B8CFC45ADA4E88819981B2
:10147000CC55D5410995B0CF6FEFECCF0E94A14379
:10148000DC01ED91FC910680F781E02D09958091BA
:101490001602882369F00E945D440E9441458091B4
:1014A0001602811199CF0E94374E0E94CF4D94CFE2
:1014B0000E94594C0E94E547EECF6F927F928F9227
:1014C0009F92AF92BF92CF92DF92EF92FF920F93D3
:1014D0001F93CF93DF93CDB7DEB7C554D2400FB67D
:1014E000F894DEBF0FBECDBF3C01CA5CDD4F8882E1
:1014F000C653D240C95CDD4F9882C753D240C85C06
:10150000DD4FA882C853D240C75CDD4FB882C953B3
:10151000D240C65CDD4FC882CA53D240C55CDD4FA5
:10152000D882CB53D240C45CDD4FE882CC53D2404A
:10153000C35CDD4FF882CD53D240C25CDD4F0883DF
:10154000CE53D240C15CDD4F1883CF53D240C05C34
:10155000DD4F2883C054D240CF5BDD4F3883C15468
:10156000D240CE5BDD4F4883C254D240CD5BDD4FCD
:101570005883C354D240CC5BDD4F6883C454D240FF
:10158000CB5BDD4F7883C554D2409E012F5F3F4F28
:10159000690182E391E0D901FC011D923197E9F7DD
:1015A00081E090E09A838983C355DF4F8883CD5AC9
:1015B000D040E0E7F4E011E620E030E0A90101C00E
:1015C0001191A5E6B0E00E9477AC9B01AC01210F20
:1015D000311D411D511D84E0E138F80789F7C255DE
:1015E000DF4F288339834A835B83CE5AD040CC5C5B
:1015F000DD4F19821882C453D2400E9491A8DE01A7
:10160000AC5CBD4F7D018E010E541F4F20E830E0D1
:10161000AE014D545F4FBC01CE018A5C9D4F0E94CC
:10162000AF92CC5CDD4F88819981C453D240009742
:10163000B1F0CB5BDD4F0FB6F894DEBF0FBECDBF70
:10164000DF91CF911F910F91FF90EF90DF90CF909E
:10165000BF90AF909F908F907F906F9008950E9461
:10166000AC920F571E4F20E031E0AE014D5C5E4F53
:10167000BC01C6010E94AF92CC5CDD4F888199818C
:10168000C453D2400097A9F6CD5CDD4F4881C353C7
:10169000D24050E0D301ED91FC911197309749F27F
:1016A000BE016D5C7E4F12968D919C9113970995AA
:1016B000CC5CDD4F88819981C453D240BACF2F9240
:1016C0003F924F925F926F927F928F929F92AF92D2
:1016D000BF92CF92DF92EF92FF920F931F93CF931F
:1016E000DF93CDB7DEB7A8970FB6F894DEBF0FBE75
:1016F000CDBF1C010E94F06F0E94486F69A37AA3BE
:101700008BA39CA3CB01ABA1BCA1898B9A8BAB8B88
:10171000BC8B0E94F06F0E94806F2B013C016D8B8F
:101720007E8B8F8B988F0E94F06F0E94B86F6DA395
:101730007EA38FA398A7698F7A8F8B8F9C8FC1010F
:10174000CD969E8F8D8FDC01CD90DD90ED90FC903D
:1017500081010F5C1F4FFE017596F8A3EF8F89A1E1
:101760009AA1ABA1BCA1BC01CD01D8012D913D91A5
:101770004D915D918D010E94F1AC4B015C0120E027
:1017800030E0A9010E945EAD87FD82C0A7019601ED
:10179000C501B4010E941FAF18167CF0ED8DFE8DBF
:1017A0000E171F0709F457C0AF8DB8A16D917D9139
:1017B0008D919D91B8A3AF8FD8CF0E945D44809149
:1017C000270290912802A0912902B0912A028983D0
:1017D0009A83AB83BC8389A19AA1ABA1BCA18D8361
:1017E0009E83AF83B88749865A866B867C868DA197
:1017F0009EA1AFA1B8A58D879E87AF87B88B1F929A
:101800001F9289809A80AB80BC80CD80DE80EF8083
:10181000F88409851A852B853C854D855E856F8505
:101820007889C1010E945D0A89A19AA1ABA1BCA1DE
:10183000F10181AB92ABA3ABB4AB45AA56AA67AAA0
:1018400070AE8DA19EA1AFA1B8A581AF92AFA3AF9D
:10185000B4AF0F900F90F101ED5BFF4F8081A89620
:101860000FB6F894DEBF0FBECDBFDF91CF911F91B1
:101870000F91FF90EF90DF90CF90BF90AF909F902F
:101880008F907F906F905F904F903F902F90089532
:10189000B7FAB094B7F8B09479CFAF92BF92CF9225
:1018A000DF92EF92FF920F931F93CF93DF93CDB709
:1018B000DEB7CD53D2400FB6F894DEBF0FBECDBF1A
:1018C0005C01CA5CDD4F0883C653D240C95CDD4F62
:1018D0001883C753D240C85CDD4F2883C853D24019
:1018E000C75CDD4F3883C953D240C65CDD4F4883A7
:1018F000CA53D240C55CDD4F5883CB53D240C45C41
:10190000DD4F6883CC53D240C35CDD4F7883CD5329
:10191000D2409E012F5F3F4F690182E391E0D901E0
:10192000FC011D923197E9F781E090E09A83898369
:10193000C355DF4F8883CD5AD040E3E8F4E012E688
:1019400020E030E0A90101C01191A5E6B0E00E94BD
:1019500077AC9B01AC01210F311D411D511D84E06D
:10196000ED38F80789F7C255DF4F288339834A835A
:101970005B83CE5AD040CC5CDD4F19821882C453B1
:10198000D2400E948BA8DE01AC5CBD4F7D018E0170
:101990000E541F4F20E830E0AE014D545F4FBC01A4
:1019A000CE018A5C9D4F0E94AF92CC5CDD4F888156
:1019B0009981C453D240009791F0C35CDD4F0FB6BC
:1019C000F894DEBF0FBECDBFDF91CF911F910F9175
:1019D000FF90EF90DF90CF90BF90AF9008950E945E
:1019E000AC920F571E4F20E031E0AE014D5C5E4FD0
:1019F000BC01C6010E94AF92CC5CDD4F8881998109
:101A0000C453D2400097C9F6CD5CDD4F4881C35323
:101A1000D24050E0D501ED91FC911197309769F2D9
:101A2000BE016D5C7E4F12968D919C911397099526
:101A3000CC5CDD4F88819981C453D240BECFCF9218
:101A4000DF92EF92FF920F931F93CF93DF93CDB767
:101A5000DEB729970FB6F894DEBF0FBECDBF6C017D
:101A600069870E945D448091270290912802A0918D
:101A70002902B0912A02082F89839A83AB83BC8301
:101A800092E0492F6985262F30E038872F83E12C9B
:101A9000F12C1A812B813C8150E07885C6010E948F
:101AA0004D0C29960FB6F894DEBF0FBECDBFDF9167
:101AB000CF911F910F91FF90EF90DF90CF900895FD
:101AC000CF92DF92EF92FF920F931F93CF93DF930A
:101AD000CDB7DEB729970FB6F894DEBF0FBECDBFE6
:101AE0006C0169870E945D448091270290912802D1
:101AF000A0912902B0912A02082F89839A83AB838F
:101B0000BC8391E0492F6985262F30E038872F83E9
:101B1000E12CF12C1A812B813C8150E07885C601A3
:101B20000E944D0C29960FB6F894DEBF0FBECDBFB4
:101B3000DF91CF911F910F91FF90EF90DF90CF90A9
:101B40000895AF92BF92CF92DF92EF92FF920F93E0
:101B50001F93CF93DF93CDB7DEB7C953D2400FB6F3
:101B6000F894DEBF0FBECDBF5C01CA5CDD4F488379
:101B700059836A837B83C653D2409E012F5F3F4FB8
:101B8000690182E391E0D901FC011D923197E9F7E7
:101B900081E090E09A838983C355DF4F8883CD5AD3
:101BA000D040EFE8F4E013E620E030E0A90101C006
:101BB0001191A5E6B0E00E9477AC9B01AC01210F2A
:101BC000311D411D511D84E0E23AF80789F7C255E5
:101BD000DF4F288339834A835B83CE5AD040CC5C65
:101BE000DD4F19821882C453D2400E9497A8DE01AB
:101BF000AC5CBD4F7D018E010E541F4F20E830E0DC
:101C0000AE014D545F4FBC01CE018A5C9D4F0E94D6
:101C1000AF92CC5CDD4F88819981C453D24000974C
:101C200091F0C75CDD4F0FB6F894DEBF0FBECDBF9D
:101C3000DF91CF911F910F91FF90EF90DF90CF90A8
:101C4000BF90AF9008950E94AC920F571E4F20E0B6
:101C500031E0AE014D5C5E4FBC01C6010E94AF9207
:101C6000CC5CDD4F88819981C453D2400097C9F67E
:101C7000CD5CDD4F4881C353D24050E0D501ED919A
:101C8000FC911197309769F2BE016D5C7E4F129600
:101C90008D919C9113970995CC5CDD4F888199813A
:101CA000C453D240BECF0F931F93CF93DF9300D086
:101CB00000D0CDB7DEB78C01662309F453C00E9473
:101CC00099890E942D720E945D4480912702909113
:101CD0002802A0912902B0912A024091100250914D
:101CE00011026091120270911302841B950BA60BD6
:101CF000B70B843F9140A105B10520F4F801808124
:101D0000811148C00E945D44809127029091280271
:101D1000A0912902B0912A0280931002909311029F
:101D2000A0931202B093130280EF9EE09A838983FE
:101D30001C830B830E945D4428E037E040E050E0C4
:101D4000BE016F5F7F4F0E94F5449093350E8093E4
:101D5000340E0F900F900F900F90DF91CF911F9145
:101D60000F9108950E9499890E9447890091340E2D
:101D70001091350E0E945D44B8010E94F4430E9408
:101D80008D6B24E630E040E050E06CE573E40E94A7
:101D9000456BDFCF0E945D4440912702509128029D
:101DA0006091290270912A0220E030E0F8018189D7
:101DB00092890E94A10DF801108280911602811172
:101DC000A1CF0E944432FC018081882309F49ACF7C
:101DD0000E94443240E05FEF6FEF0E94AF3192CF3C
:101DE000CF93DF93FC012081211104C080E0DF91BB
:101DF000CF910895EC010E945D44409127025091DB
:101E000028026091290270912A0220E030E089893D
:101E10009A890E94A10D1882809116028111E6CF45
:101E20000E944432FC018081882301F30E944432E5
:101E300040E05FEF6FEF0E94AF31D8CFCF92DF92DB
:101E4000EF92FF920F931F93CF93DF93CDB7DEB73F
:101E500028970FB6F894DEBF0FBECDBF6C01662386
:101E600009F441C00E945D448091270290912802AC
:101E7000A0912902B0912A0240910C0250910D02CA
:101E800060910E0270910F02841B950BA60BB70B8D
:101E9000843F9140A105B10508F453C00E945D4400
:101EA0008091270290912802A0912902B0912A02E4
:101EB00080930C0290930D02A0930E02B0930F0238
:101EC0000E945D448091270290912802A0912902EE
:101ED000B0912A0289839A83AB83BC831E821D82C0
:101EE00091E080E012C00E945D44809127029091B1
:101EF0002802A0912902B0912A0289839A83AB8398
:101F0000BC831E821D8290E080E0692FE12CF12CC1
:101F100009811A812B813C814D815E81782FC60118
:101F20000E944D0C28960FB6F894DEBF0FBECDBFB1
:101F3000DF91CF911F910F91FF90EF90DF90CF90A5
:101F400008950E945D4440912702509128026091BB
:101F5000290270912A0220E030E0C6010E94A10D02
:101F6000E091360EF091370E1082809116028111A9
:101F7000D9CF0E944432FC018081882399F20E94CB
:101F8000443240E05FEF6FEF0E94AF31CBCFAF92B2
:101F9000BF92CF92DF92EF92FF920F931F93CF9356
:101FA000DF93CDB7DEB7C154D2400FB6F894DEBF91
:101FB0000FBECDBF5C01CA5CDD4FC882C653D240A4
:101FC000C95CDD4FD882C753D240C85CDD4FE88280
:101FD000C853D240C75CDD4FF882C953D240C65CBB
:101FE000DD4F0883CA53D240C55CDD4F1883CB5305
:101FF000D240C45CDD4F2883CC53D240C35CDD4F5C
:102000003883CD53D240C25CDD4F4883CE53D2409B
:10201000C15CDD4F5883CF53D240C05CDD4F688335
:10202000C054D240CF5BDD4F7883C154D2409E0173
:102030002F5F3F4F690182E391E0D901FC011D92BE
:102040003197E9F781E090E09A838983C355DF4FA8
:102050008883CD5AD040E4EAF4E015E620E030E091
:10206000A90101C01191A5E6B0E00E9477AC9B01E7
:10207000AC01210F311D411D511D84E0EF3AF807DD
:1020800089F7C255DF4F288339834A835B83CE5A51
:10209000D040CC5CDD4F19821882C453D2400E94DC
:1020A0008EA8DE01AC5CBD4F7D018E010E541F4F2A
:1020B00020E830E0AE014D545F4FBC01CE018A5C98
:1020C0009D4F0E94AF92CC5CDD4F88819981C453B3
:1020D000D240009791F0CF5BDD4F0FB6F894DEBF92
:1020E0000FBECDBFDF91CF911F910F91FF90EF9069
:1020F000DF90CF90BF90AF9008950E94AC920F57A1
:102100001E4F20E031E0AE014D5C5E4FBC01C601C8
:102110000E94AF92CC5CDD4F88819981C453D2403C
:102120000097C9F6CD5CDD4F4881C353D24050E0E3
:10213000D501ED91FC911197309769F2BE016D5C6C
:102140007E4F12968D919C9113970995CC5CDD4F33
:1021500088819981C453D240BECF4F925F926F92D3
:102160007F928F929F92AF92BF92CF92DF92EF9227
:10217000FF920F931F93CF93DF93CDB7DEB72C97CA
:102180000FB6F894DEBF0FBECDBF4C010E94594C74
:1021900062E070E00E94AD45762E472E582E692EE3
:1021A000F40125A536A547A550A90E94F1AC6B0105
:1021B0007C0120E030E0A9010E945EAD87FD63C094
:1021C000A7019601F40161A172A183A194A10E94CB
:1021D0005EAD87FF3FC081E090E090932602809340
:1021E00025020E945D448091270290912802A091CF
:1021F0002902B0912A02C82E89839A83AB83BC83BB
:1022000082E0082F8D831E821F821886472D872D1E
:10221000942DA52DB62D89879A87AB87BC87A12CD5
:10222000B12CDA80EB80FC8010E020E030E05A85B1
:102230006B857C85C4010E94C70F10922602109204
:102240002502872D942DA52DB62DF40185A796A7DF
:10225000A7A7B0ABF40182892C960FB6F894DEBF25
:102260000FBECDBFDF91CF911F910F91FF90EF90E7
:10227000DF90CF90BF90AF909F908F907F906F90A6
:102280005F904F900895F7FAF094F7F8F09498CF94
:102290004F925F926F927F928F929F92AF92BF9276
:1022A000CF92DF92EF92FF920F931F93CF93DF9322
:1022B000CDB7DEB72C970FB6F894DEBF0FBECDBFFB
:1022C0004C010E94594C61E070E00E94AD45762EB1
:1022D000472E582E692EF40121A532A543A554A5F9
:1022E0000E94F1AC6B017C0120E030E0A9010E946A
:1022F0005EAD87FD63C0A7019601F401658D768D03
:10230000878D90A10E945EAD87FF3FC081E090E085
:1023100090932602809325020E945D4480912702BB
:1023200090912802A0912902B0912A02C82E898397
:102330009A83AB83BC8381E0082F8D831E821F822A
:102340001886472D872D942DA52DB62D89879A8720
:10235000AB87BC87A12CB12CDA80EB80FC8010E02D
:1023600020E030E05A856B857C85C4010E94C70F50
:102370001092260210922502872D942DA52DB62DA0
:10238000F40181A792A7A3A7B4A7F40181892C9691
:102390000FB6F894DEBF0FBECDBFDF91CF911F9176
:1023A0000F91FF90EF90DF90CF90BF90AF909F90F4
:1023B0008F907F906F905F904F900895F7FAF09410
:1023C000F7F8F09498CF4F925F926F927F928F922E
:1023D0009F92AF92BF92CF92DF92EF92FF920F93B4
:1023E0001F93CF93DF93CDB7DEB72C970FB6F8943A
:1023F000DEBF0FBECDBF4C010E94594C60E070E0C3
:102400000E94AD45762E472E582E692EF40125A147
:1024100036A147A150A50E94F1AC6B017C0120E0E0
:1024200030E0A9010E945EAD87FD62C0A701960160
:10243000F401618D728D838D948D0E945EAD87FF56
:102440003EC081E090E090932602809325020E9496
:102450005D448091270290912802A0912902B091B9
:102460002A02C82E89839A83AB83BC831D821E8275
:102470001F821886472D872D942DA52DB62D89876F
:102480009A87AB87BC87A12CB12CDA80EB80FC80CB
:1024900000E01E812F8138855A856B857C85C401BB
:1024A0000E94C70F1092260210922502872D942DAC
:1024B000A52DB62DF40185A396A3A7A3B0A7F4017B
:1024C00080892C960FB6F894DEBF0FBECDBFDF918A
:1024D000CF911F910F91FF90EF90DF90CF90BF9021
:1024E000AF909F908F907F906F905F904F900895E6
:1024F000F7FAF094F7F8F09499CFAF92BF92CF9299
:10250000DF92EF92FF920F931F93CF93DF93CDB79C
:10251000DEB7CF53D2400FB6F894DEBF0FBECDBFAB
:102520005C01CA5CDD4FE882C653D240C95CDD4F16
:10253000F882C753D240C85CDD4F0883C853D240ED
:10254000C75CDD4F1883C953D240C65CDD4F28837A
:10255000CA53D240C55CDD4F3883CB53D240C45CF4
:10256000DD4F4883CC53D240C35CDD4F5883CD53FD
:10257000D240C25CDD4F6883CE53D240C15CDD4F98
:102580007883CF53D2409E012F5F3F4F690182E392
:1025900091E0D901FC011D923197E9F781E090E0CB
:1025A0009A838983C355DF4F8883CD5AD040E1EBAE
:1025B000F4E01AE620E030E0A90101C01191A5E69F
:1025C000B0E00E9477AC9B01AC01210F311D411D91
:1025D000511D84E0EA3BF80789F7C255DF4F288395
:1025E00039834A835B83CE5AD040CC5CDD4F19825D
:1025F0001882C453D2400E9494A8DE01AC5CBD4F47
:102600007D018E010E541F4F20E830E0AE014D5485
:102610005F4FBC01CE018A5C9D4F0E94AF92CC5CA3
:10262000DD4F88819981C453D240009791F0C15CFD
:10263000DD4F0FB6F894DEBF0FBECDBFDF91CF9157
:102640001F910F91FF90EF90DF90CF90BF90AF90D0
:1026500008950E94AC920F571E4F20E031E0AE016A
:102660004D5C5E4FBC01C6010E94AF92CC5CDD4F59
:1026700088819981C453D2400097C9F6CD5CDD4F63
:102680004881C353D24050E0D501ED91FC911197A0
:10269000309769F2BE016D5C7E4F12968D919C91D0
:1026A00013970995CC5CDD4F88819981C453D24042
:1026B000BECFAF92BF92CF92DF92EF92FF920F9375
:1026C0001F93CF93DF93CDB7DEB72C970FB6F89457
:1026D000DEBF0FBECDBF5C018B0183E090E0909325
:1026E0002602809325024B875C870E945D4480917F
:1026F000270290912802A0912902B0912A02E82E87
:1027000089839A83AB83BC83012E000C220B330B8D
:10271000802F0D831E832F8338874B85642F5C8524
:102720005A87C12CD12CFA800B811C81282F3E8125
:102730004F8158857A85C5010E947D12109226022C
:10274000109225022C960FB6F894DEBF0FBECDBFB7
:10275000DF91CF911F910F91FF90EF90DF90CF907D
:10276000BF90AF9008952F923F924F925F926F92D9
:102770007F928F929F92AF92BF92CF92DF92EF9211
:10278000FF920F931F93CF93DF93CDB7DEB7CE5E4B
:10279000D5400FB6F894DEBF0FBECDBF5C014B0134
:1027A00027011601243860EA360762EC460763E623
:1027B000560711F40C94211F08F476C0253EA5EAB3
:1027C0003A07A9EE4A07ABEB5A0709F4FBC308F036
:1027D000D5C02B3FE3E43E07E9E84E07E5E85E0796
:1027E00011F40C948A1F08F024C22B3868EC3607C9
:1027F00064E146076CE6560711F40C94F21F10F4DE
:102800000C94B71C243A9AE1390791EB49079CE6EE
:10281000590709F451C4263F3548434E5C4611F030
:102820000C94971ED801CD907D01D12C0E94B9A7A0
:1028300081019601A701BC01C5010E94F192F1013D
:1028400080819181892B09F077C30E94CA6960E079
:1028500070E00E949469092E000CAA0BBB0B8A83BE
:102860009B83AC83BD830E94CA6961E070E00E94D3
:102870009469092E000CAA0BBB0B8E839F83A8873B
:10288000B9870E94CA6962E070E00E949469092ECB
:10289000000CAA0BBB0B8A879B87AC87BD8783E0A4
:1028A00089830E9431A8B8C1243D8DE6380788E8A5
:1028B00048078AE3580711F40C94592108F0E7C03F
:1028C0002938AAE03A07A1E44A07ABE15A0711F414
:1028D0000C94A32108F08EC22631E9E23E07E2E221
:1028E0004E07E7E05E0711F40C94552008F43BC551
:1028F00025317DED370776ED47077BE0570709F473
:10290000C1C3293D3C40424B5F4011F00C94971EDF
:10291000D801CD907D01D12C0E94C8A781019601DC
:10292000A701BC01C5010E94F192F1018081918152
:10293000892B09F001C30E94CA6960E070E00E941F
:1029400026696A837B838C839D830E94CA6961E0C8
:1029500070E00E9426696E837F83888799870E9432
:10296000CA6962E070E00E9426696A877B878C876B
:102970009D8783E089830E9440A84EC1203880E172
:10298000380787E948078EED580711F40C94F620B4
:1029900008F408C1243B71E2370777EE4707570771
:1029A00011F40C945E2208F0A4C2243995EC390786
:1029B0009DEF49079FED590709F4D6C325393348E0
:1029C000474C524E11F00C94971ED801CD907D01CA
:1029D000D12C0E94E0A781019601A701BC01C5018D
:1029E0000E94F192F10180819181892B09F0A4C2AA
:1029F0003201FFEF6F1A7F0A85E8F501DE01A75E5D
:102A0000BD4F01900D928A95E1F7D5018D909D9073
:102A1000AD90BC90C12CD12C00E010E0EE24E394EA
:102A2000F12CC454DA4F79826882CC5BD540C05413
:102A3000DA4F59824882C05CD540C701002E02C0DF
:102A4000880F991F0A94E2F7092E000CAA0BBB0B02
:102A500088219921AA21BB21892B8A2B8B2B11F04C
:102A60000C9424240F5F1F4F0330110531F7C45419
:102A7000DA4F68807980CC5BD540C054DA4F48800B
:102A80005980C05CD54019820E9458A8A8C1283E30
:102A900060EF360768EC460761E5560711F40C94C1
:102AA0002D2208F018C1263C88E2380780EF48073D
:102AB00081E4580711F40C94BE2010F40C94C81D46
:102AC0002F34B3EE3B07B1EE4B07B2E45B0709F4DA
:102AD000B9C3273D3F474A43574411F00C94971E12
:102AE000D801CD907D01D12C0E94E6A781019601ED
:102AF000A701BC01C5010E94F192F1018081918181
:102B0000892B09F019C23201FFEF6F1A7F0A85E89D
:102B1000F501DE01A15FBE4F01900D928A95E1F7AC
:102B2000D5018D909D90AD90BC90C12CD12C00E032
:102B300010E0EE24E394F12CC454DA4F79826882D9
:102B4000CC5BD540C054DA4F59824882C05CD54036
:102B5000C701002E02C0880F991F0A94E2F7092EC0
:102B6000000CAA0BBB0B88219921AA21BB21892B20
:102B70008A2B8B2B11F00C94D5230F5F1F4F033042
:102B8000110531F7C454DA4F68807980CC5BD540A9
:102B9000C054DA4F48805980C05CD54019820E94E9
:102BA0005EA81DC12835A5ED3A07A3E84A07ADEB9D
:102BB0005A0711F40C94882008F438C72135F4E042
:102BC0003F07FBE84F07F6EC5F0709F413C3233018
:102BD00034414C4A5D4D11F00C94971ED801CD90B4
:102BE0007D01D12C0E94F8A781019601A701BC01AB
:102BF000C5010E94F192F10180819181892B09F038
:102C00009BC18CE0E3E5F4E0DE01119601900D92AA
:102C10008A95E1F70E9470A8A2014F5F5F4F710192
:102C2000820120E830E0BC01CE0101960E94AF9203
:102C300083C12F3DB7EA3B07BAE04B07B6E95B0714
:102C400011F40C94F41E08F467C7213369E73607C2
:102C500068E4460768EA560709F436C32F36354B51
:102C60004849504B11F00C94971ED801CD907D012E
:102C7000D12C0E94CBA781019601A701BC01C501FF
:102C80000E94F192F10180819181892B09F054C158
:102C90000E94CA6960E070E00E944C696A837B838D
:102CA0008C839D830E94CA6961E070E00E944C6938
:102CB0006E837F83888799870E94CA6962E070E08B
:102CC0000E944C696A877B878C879D8783E0898314
:102CD0000E9443A8A1CF2F31FEE83F07FFEB4F072B
:102CE000FAE55F0711F40C949D1E08F4BFC7283164
:102CF00080E9380789E9480783E6580709F412C3D1
:102D00002138304A424C534611F00C94971ED8019A
:102D1000CD907D01D12C0E94DAA781019601A701F7
:102D2000BC01C5010E94F192F10180819181892B42
:102D300009F002C13201FFEF6F1A7F0A9E012D5D7B
:102D40003C4FC054DA4F39832883C05CD54085E8B6
:102D5000F501D90101900D928A95E1F7D5018D9089
:102D60009D90AD90BC90C12CD12C00E010E0EE24E1
:102D7000E394F12CC454DA4F79826882CC5BD5405D
:102D8000CC53DA4F59824882C45CD540C701002E2B
:102D900002C0880F991F0A94E2F7092E000CAA0BB3
:102DA000BB0B88219921AA21BB21892B8A2B8B2B34
:102DB00011F00C944F230F5F1F4F0330110531F7B3
:102DC000C454DA4F68807980CC5BD540CC53DA4F5D
:102DD00048805980C45CD54019820E9452A8710174
:102DE000820120E830E0A301BC01CE0101960E94DF
:102DF000AF92A2C0211591EC390794EF490791E2F7
:102E0000590711F40C94C41F08F44CC6213BECE3A1
:102E10003E07E1EF4E07E1E35E0709F4A7C0253D59
:102E20003B414744524309F082C7D801CD907D0110
:102E3000D12C0E94B0A781019601A701BC01C50158
:102E40000E94F192F10180819181892B09F074C077
:102E50006201FFEFCF1ADF0AD5018C9181110C942A
:102E60003B26D40114968D919C9115979A83898362
:102E700016968D919C9117979C838B830E94374E59
:102E8000FE0131965F01AF0160E070E00E949F4D4E
:102E9000D40118968D919C9119979A8389831A96DB
:102EA0008D919C911B979C838B830E94374EA5012B
:102EB00061E070E00E949F4DF401848595859A83BE
:102EC0008983868597859C838B830E94374EA501D5
:102ED00062E070E00E949F4D19820E9428A8710153
:102EE000820120E830E0A601BC01C5010E94AF923A
:102EF00023C0283FBFE23B07BAEE4B07B8EE5B07A3
:102F000009F496C0283A3747464B5D4F09F00FC782
:102F1000D801CD907D01D12C0E94ECA781019601B2
:102F2000A701BC01C5010E94F192F101808191814C
:102F3000892B11F40C94BB22C251DA4F0FB6F894CE
:102F4000DEBF0FBECDBFDF91CF911F910F91FF90DC
:102F5000EF90DF90CF90BF90AF909F908F907F9039
:102F60006F905F904F903F902F900895D801CD9033
:102F70007D01D12C0E94B6A781019601A701BC0159
:102F8000C5010E94F192F10180819181892BA1F606
:102F90006201FFEFCF1ADF0AD5018C9181110C94E9
:102FA0002B261A8219821C821B820E9472579E0154
:102FB0002F5F3F4F5901B9010E94BB5319820E94F4
:102FC0002EA88DCFD801CD907D01D12C0E94C2A713
:102FD00081019601A701BC01C5010E94F192F10196
:102FE00080819181892B09F0A7CF0E94CA6960E096
:102FF00070E00E9400696A837B838C839D830E94BA
:10300000CA6961E070E00E9400696E837F838887EF
:1030100099870E94CA6962E070E00E9400696A872D
:103020007B878C879D8783E089830E943AA8F4CDB3
:10303000D801CD907D01D12C0E9407A88101960175
:10304000A701BC01C5010E94F192F101808191812B
:10305000892B09F071CFD5011496DC901497159641
:103060000C911597ED90FC900E949033302F2D2DF0
:10307000AE014E5F5F4FB7010E945E32D9820E945F
:103080007FA8CACDD801CD907D01D12C0E94F5A793
:1030900081019601A701BC01C5010E94F192F101D5
:1030A00080819181892B09F047CF19821A821B8276
:1030B0001C820E946DA8B0CDD801CD907D01D12C8D
:1030C0000E94F2A781019601A701BC01C5010E94DF
:1030D000F192F10180819181892B09F02DCF62015C
:1030E000FFEFCF1ADF0A0E945D4480912702909182
:1030F0002802A0912902B0912A0289839A83AB8386
:10310000BC839E012F5F3F4F5901390100E010E061
:1031100088248394912C62E0E62EF12C0E94725751
:10312000B8010E94FE538130910511F40C94692579
:1031300014F40C94E9228230910511F40C94642566
:10314000039729F424E030E0F301368325830F5FF1
:103150001F4F32E0630E711C03301105F9F683E056
:103160008D830E946AA8BBCEF801C1907F01D12C4B
:103170000E94A4A781019601A701BC01C5010E947C
:10318000F192D1018D919C91892B09F0D5CEF50159
:10319000C080D180E280F380A701662777278D2C3D
:1031A0009E2CAF2CBB24C951DA4F4883C75ED54053
:1031B000C851DA4F5883C85ED540C751DA4F68838B
:1031C000C95ED540CA51DA4F7883C65ED5400E94A9
:1031D0004432C951DA4F4881C75ED540582D6C2D15
:1031E0000E94AF310E944432DC011C9219820E947D
:1031F0001CA812CDD801CD907D01D12C0E94E9A749
:1032000081019601A701BC01C5010E94F192F10163
:1032100080819181892B09F08FCE0E94A24F0E945C
:10322000D30260E070E00E94AD0223ED38E44EE886
:103230005EE30E9463AD69837A838B839C830E94E3
:1032400061A8EACCF801C1907F01D12C0E94FEA7B1
:1032500081019601A701BC01C5010E94F192D10133
:103260008D919C91892B09F067CE6201BFEFCB1A3B
:10327000DB0A0E94594C7C0100E010E00E9472576A
:10328000B8010E94B5530E94725740E050E0B80167
:103290000E9454530F5F1F4F0330110579F7F70158
:1032A000BD9686E0DF011D928A95E9F719820E949A
:1032B00076A87101820120E830E0A601BC01CE01B0
:1032C00001960E94AF9238CED801CD907D01D12CCD
:1032D0000E949BA781019601A701BC01C5010E9424
:1032E000F192F10180819181892B09F025CE0E9414
:1032F000F06F0E94486F69837A838B839C830E945E
:10330000F06F0E94806F6D837E838F8398870E9409
:10331000F06F0E94B86F69877A878B879C870E94BD
:1033200013A87ACCF801C1907F01D12C0E94A7A7E5
:1033300081019601A701BC01C5010E94F192D10152
:103340008D919C91892B09F0F7CD0E948D6BFC012A
:1033500081819281A381B48189839A83AB83BC8369
:103360000E941FA859CC233E3041434C564009F0DF
:10337000DEC4D801CD907D01D12C0E94FBA7810134
:103380009601A701BC01C5010E94F192F101808163
:103390009181892B09F0D0CD92012F5F3F4FCB5205
:1033A000DA4F39832883C55DD540D50111960D903C
:1033B000BC91A02DC551DA4FB983A883CB5ED5400F
:1033C000D50113966D907D908D909C901697C0546A
:1033D000DA4F688279828A829B82C05CD5401796D8
:1033E000BC91C653DA4FB883CA5CD540F50100845E
:1033F000F185E02DC454DA4FF983E883CC5BD540E6
:10340000D5011A96BC91CA53DA4FB883C65CD54031
:10341000F5014385548565857685F785C153DA4F77
:10342000F883CF5CD540D50150960D90BC91A02D6E
:10343000C952DA4FB983A883C75DD540F501F28937
:10344000C352DA4FF883CD5DD540D50153960D9028
:10345000BC91A02DCC51DA4FB983A883C45ED5406E
:10346000F501C588D688E788F08CF18DC353DA4F13
:10347000F883CD5CD540D5015A960D90BC91A02D16
:10348000C552DA4FB983A883CB5DD540F501F48DE1
:10349000C652DA4FF883CA5DD540F501858D968D09
:1034A000A78DB0A1F1A1CD51DA4FF883C35ED5400D
:1034B000F50102A0F3A1E02DCF52DA4FF983E883A2
:1034C000C15DD540F501F4A1C251DA4FF883CE5E5B
:1034D000D540F50105A0F6A1E02DCC53DA4FF983D4
:1034E000E883C45CD540F50107A110A521A532A54C
:1034F000F3A5C853DA4FF883C85CD540F50104A49E
:10350000F5A5E02DC553DA4FF983E883CB5CD540B0
:10351000F501F6A5CE51DA4FF883C25ED540F5012C
:1035200067A470A881A892A8C252DA4F68827982F3
:103530008A829B82CE5DD540F3A9C752DA4FF883C9
:10354000C95DD540F50164A875A8F081C351DA4F73
:10355000F883CD5ED540C35DDB4FF883CD52D440B8
:10356000C352DA4F8880CD5DD540C25DDB4F888283
:10357000CE52D440C251DA4F9880CE5ED540C15D64
:10358000DB4F9882CF52D440C551DA4FA880B98022
:10359000CB5ED540C75EDD4FB982A882C951D2400B
:1035A000CC51DA4FE881F981C45ED540C55EDD4F6C
:1035B000F983E883CB51D240CC53DA4F888099808D
:1035C000C45CD540C35EDD4F99828882CD51D24024
:1035D000C054DA4F88809980AA80BB80C05CD540F7
:1035E000C657DF4F88829982AA82BB82CA58D040D0
:1035F000C257DF4FC882D982EA82FB82CE58D040C0
:10360000CE56DF4F088319832A833B83C259D040AB
:103610009E0128553C4FCC53DA4F39832883C45C34
:10362000D540C653DA4F8880CA5CD540F901808204
:10363000C353DA4F9880CD5CD5409182C853DA4F9E
:10364000A880C85CD540A282C454DA4F2881398151
:10365000CC5BD540CC56DE4F39832883C459D1404A
:10366000C552DA4FE881F981CB5DD540CA56DE4FAD
:10367000F983E883C659D140C553DA4F88809980D1
:10368000CB5CD540C856DE4F99828882C859D1405C
:103690009E012D5D3C4FC054DA4F39832883C05CB6
:1036A000D540CA53DA4F8880C65CD540F901808284
:1036B000C652DA4F9880CA5DD5409182CE51DA4F1A
:1036C000A880C25ED540A28249835A836B837C83E3
:1036D0008D839E83AF83B887C252DA4F28813981A8
:1036E0004A815B81CE5DD54029873A874B875C87CD
:1036F000AE0142565D4FC454DA4F59834883CC5BC8
:10370000D540C153DA4FE881CF5CD540DA01EC9364
:10371000CD51DA4FF881C35ED5401196FC931197D5
:10372000C752DA4F8880C95DD54012968C921297A5
:10373000C952DA4FA880B980C75DD540C15FDE4F5E
:10374000B982A882CF50D140CF52DA4F2881398137
:10375000C15DD540CF5EDE4F39832883C151D14052
:10376000CD5EDE4F79826882C351D1404DE254E094
:103770004C0F5D1F4F5F5F4FC853DA4F598348832B
:10378000C85CD540BE01615F7E4FCA53DA4F798372
:103790006883C65CD540CE0101965C018E01075E50
:1037A0001D4FA451B2406D01FE01EC56FE4F4F017A
:1037B000612C712CC351DA4FE881CD5ED540C553E1
:1037C000DA4F59824882CB5CD5402801C353DA4F87
:1037D00039822882CD5CD5401B01C153DA4F9983D1
:1037E0008883CF5CD540EE2309F49AC0CC53DA4FDE
:1037F000E881F981C45CD540E60DF71D80818823FE
:1038000011F40C945D25D4018D919C91C054DA4F34
:10381000E881F981C05CD540E60DF71D2081CA53CF
:10382000DA4F2883C65CD540211106C0D5011D9210
:103830001D921D921C921397C454DA4FE881F981AE
:10384000CC5BD540E60DF71DB081C653DA4FB88387
:10385000CA5CD540B11105C021E030E0F1013183EF
:1038600020838230910511F40C94E12614F40C9419
:103870009A258330910511F40C948726049709F05A
:1038800047C0D5012D913D914D915C91CF52DA4FBA
:10389000288339834A835B83C15DD540F60120814B
:1038A000318142815381C651DA4F2883CA5ED540A7
:1038B000CA51DA4F3883C65ED540C951DA4F4883C2
:1038C000C75ED540C851DA4F5883C85ED5400E94C4
:1038D0007257CF52DA4FE880F9800A811B81C15DAF
:1038E000D540C651DA4F2881CA5ED540CA51DA4F59
:1038F0003881C65ED540C951DA4F4881C75ED54090
:10390000C851DA4F5881C85ED540B3010E941457A0
:10391000CA53DA4FF881C65CD540F1110C94E12509
:10392000BFEF6B1A7B0AE2E02E0E311CF4E0AF0E03
:10393000B11C22E0420E511C34E0C30ED11C42E007
:10394000840E911C53E06516710409F4EFC5C85349
:10395000DA4FA881B981C85CD540ED91C853DA4FE0
:10396000B983A883C85CD540EE23D1F23FCF223083
:103970003041474D544609F0DAC1D801CD907D0160
:10398000D12C0E94D1A781019601A701BC01C501DC
:103990000E94F192F10180819181892B09F0CCCABA
:1039A0006201FFEFCF1ADF0A85E8F501DE01AE54B0
:1039B000BB4F01900D928A95E1F7D5016D907D90F6
:1039C0008D909C90A12CB12C00E010E0EE24E394AB
:1039D000F12CC454DA4F688279828A829B82CC5B54
:1039E000D540C701002E02C0880F991F0A94E2F744
:1039F000092E000CAA0BBB0BC454DA4F68807980E7
:103A00008A809B80CC5BD54086219721A821B92153
:103A1000892B8A2B8B2B09F091C60F5F1F4F033028
:103A20001105F9F619820E9449A843CC283E354A6F
:103A3000494E5B4B09F07BC1D801CD907D01D12C63
:103A40000E94BFA781019601A701BC01C5010E9488
:103A5000F192F10180819181892B09F06DCA0E9458
:103A6000CA6960E070E00E94DA686A837B838C83B5
:103A70009D830E94CA6961E070E00E94DA686E83EB
:103A80007F83888799870E94CA6962E070E00E94FC
:103A9000DA686A877B878C879D8783E089830E94A9
:103AA00037A8BAC82A3E3A4E4543504209F03FC1B2
:103AB000D801CD907D01D12C0E949EA78101960155
:103AC000A701BC01C5010E94F192F10180819181A1
:103AD000892B09F031CA6201FFEFCF1ADF0A7E019C
:103AE00022E0E20EF11C00E010E00E94D302B801D7
:103AF0000E949F02A0E0B0E0F70181939193A1930F
:103B0000B1937F010F5F1F4F0830110571F788E0F7
:103B100089830E9416A8CDCB2B3B3C464E4B5B487D
:103B200009F005C1D801CD907D01D12C0E94CEA70E
:103B300081019601A701BC01C5010E94F192F1012A
:103B400080819181892B09F0F7C90E94CA6960E0E0
:103B500070E00E9472696A837B838C839D830E94DC
:103B6000CA6961E070E00E9472696E837F83888712
:103B700099870E94CA6962E070E00E9472696A8750
:103B80007B878C879D8783E089830E9446A844C8F1
:103B90002233394B4041514409F0C9C0D801CD907E
:103BA0007D01D12C0E94DDA781019601A701BC01F6
:103BB000C5010E94F192F10180819181892B09F068
:103BC000BBC93201FFEF6F1A7F0A9E0122563D4F9B
:103BD000C454DA4F39832883CC5BD54085E8F5019E
:103BE000D90101900D928A95E1F7D5018D909D90B4
:103BF000AD90BC90C12CD12C00E010E0EE24E394F9
:103C0000F12CC054DA4F79826882C05CD540CC5325
:103C1000DA4F59824882C45CD540C701002E02C0E9
:103C2000880F991F0A94E2F7092E000CAA0BBB0B10
:103C300088219921AA21BB21892B8A2B8B2B09F062
:103C4000E0C40F5F1F4F0330110539F7C054DA4F3E
:103C500068807980C05CD540CC53DA4F4880598069
:103C6000C45CD54019820E9455A8B9C82F37344D7D
:103C70004642534509F05BC0D801CD907D01D12C5F
:103C80000E9410A881019601A701BC01C5010E94F4
:103C9000F192F10180819181892B09F04DC9420196
:103CA000FFEF8F1A9F0A89E8F501DE011196019056
:103CB0000D928A95E1F79E0126573F4F6901590100
:103CC0003FEFA31AB30AED8029856981C651DA4F07
:103CD0002883CA5ED540C751DA4F6883C95ED54094
:103CE0000E94006F8501C651DA4F2881CA5ED54017
:103CF000AE01465F5F4FC751DA4F6881C95ED5405C
:103D00000E94BD6E892BF9F60E94006F0E94EC6E36
:103D10008D81D6018C930E9488A87101820120E8D0
:103D200030E0A401BC01C6010E94AF9205C984E045
:103D300090E0F10191838083FFC8F801C1907F0179
:103D4000D12C0E940AA881019601A701BC01C501DE
:103D50000E94F192D1018D919C91892B09F0ECC8C0
:103D60004201BFEF8B1A9B0A6E01EAE8CE0ED11C0E
:103D700085E8F501D60101900D928A95E1F786015B
:103D80000B5F1F4FD60114962C9114976C91C6515E
:103D9000DA4F2883CA5ED540C751DA4F6883C95EBF
:103DA000D5400E94006FC651DA4F2881CA5ED540C7
:103DB000A801C751DA4F6881C95ED5400E94806E64
:103DC000892B01F70E94006F0E94EC6E19820E94FD
:103DD00082A87101820120E830E0A401BC01CE017B
:103DE00001960E94AF92A8C8F801C1907F01D12C22
:103DF0000E94EFA781019601A701BC01C5010E94A5
:103E0000F192D1018D919C91892B09F095C86201A5
:103E1000BFEFCB1ADB0A0E94A24FFC01818592857D
:103E200003978330910508F013C7880F991FFC0191
:103E3000E153FB4F808191819A8389830E9467A817
:103E400038CAD801CD907D01D12C0E94D7A781011D
:103E50009601A701BC01C5010E94F192F101808188
:103E60009181892B09F068C83201FFEF6F1A7F0A30
:103E70009E0128553C4FCC53DA4F39832883C45CCC
:103E8000D54085E8F501D90101900D928A95E1F7B9
:103E9000D5018D909D90AD90BC90C12CD12C00E0AF
:103EA00010E0EE24E394F12CC454DA4F7982688256
:103EB000CC5BD540C054DA4F59824882C05CD540B3
:103EC000C701002E02C0880F991F0A94E2F7092E3D
:103ED000000CAA0BBB0B88219921AA21BB21892B9D
:103EE0008A2B8B2B09F0FFC40F5F1F4F0330110586
:103EF00039F7C454DA4F68807980CC5BD540C05420
:103F0000DA4F48805980C05CD54019820E944FA882
:103F10000C94EF16D801CD907D01D12C0E9404A8FD
:103F200081019601A701BC01C5010E94F192F10136
:103F300080819181892B11F00C949C1785E8F50103
:103F4000DE01A95CBA4F01900D928A95E1F7C55C3C
:103F5000DA4F0881CB53D54010E0C95CDA4FE880D6
:103F6000F980C753D5400E94903347E355E04C0F8A
:103F70005D1F4B5F5F4F9801B7010E94323319827A
:103F80000E947CA80C940C16F801C1907F01D12CE2
:103F90000E940DA881019601A701BC01C5010E94E4
:103FA000F192D1018D919C91892B11F00C949C1769
:103FB0006201BFEFCB1ADB0AF501148100810E9478
:103FC000006F212FAE014E5F5F4F602F0E949D6EEC
:103FD000892BA9F70E94006F0E94EC6E19830E9442
:103FE00085A867C9D801CD907D01D12C0E94E3A797
:103FF00081019601A701BC01C5010E94F192F10166
:1040000080819181892B11F00C949C173201FFEF74
:104010006F1A7F0A85E8F501DE01AC56BE4F0190AC
:104020000D928A95E1F7D5018D909D90AD90BC9051
:10403000C12CD12C00E010E0EE24E394F12CC45408
:10404000DA4F79826882CC5BD540C054DA4F59820E
:104050004882C05CD540C701002E02C0880F991F5E
:104060000A94E2F7092E000CAA0BBB0B88219921B8
:10407000AA21BB21892B8A2B8B2B09F0D0C40F5F7F
:104080001F4F0330110539F7C454DA4F6880798027
:10409000CC5BD540C054DA4F48805980C05CD540D5
:1040A00019820E945BA80C94EF16F801C1907F0161
:1040B000D12C0E9401A881019601A701BC01C50174
:1040C0000E94F192D1018D919C91892B11F00C9459
:1040D0009C176201BFEFCB1ADB0AF501E1808081FA
:1040E000882309F4FDC4F12C00E010E0C701002E84
:1040F00002C0959587950A94E2F780FD75C20F5F1F
:104100001F4F0330110591F719820E9479A8D1C879
:10411000F801C1907F01D12C0E94ADA781019601C9
:10412000A701BC01C5010E94F192D1018D919C9122
:10413000892B11F00C949C176201BFEFCB1ADB0A9C
:10414000F50141815281638174818081F401811183
:10415000BEC5EF5BFF4F008111810E945D44B80135
:104160000E94F443F401ED5BFF4F1082CE010196F3
:104170005C0119820E9425A80C946F17D801CD907C
:104180007D01D12C0E94C5A781019601A701BC0128
:10419000C5010E94F192F10180819181892B11F07A
:1041A0000C949C170E94CA6960E070E00E94B66897
:1041B0006A837B838C839D830E94CA6961E070E07F
:1041C0000E94B6686E837F83888799870E94CA6938
:1041D00062E070E00E94B6686A877B878C879D8763
:1041E00083E089830E943DA80C940C16D801CD90E1
:1041F0007D01D12C0E94D4A781019601A701BC01A9
:10420000C5010E94F192F10180819181892B11F009
:104210000C949C173201FFEF6F1A7F0A85E8F501B5
:10422000DE01A35DBB4F01900D928A95E1F7D501A8
:104230008D909D90AD90BC90C12CD12C00E010E0F1
:10424000EE24E394F12CC454DA4F79826882CC5B7B
:10425000D540C054DA4F59824882C05CD540C7016E
:10426000002E02C0880F991F0A94E2F7092E000C55
:10427000AA0BBB0B88219921AA21BB21892B8A2B50
:104280008B2B09F07EC30F5F1F4F0330110539F7E9
:10429000C454DA4F68807980CC5BD540C054DA4F83
:1042A00048805980C05CD54019820E944CA80C946B
:1042B000EF16D801CD907D01D12C0E94AAA78101D3
:1042C0009601A701BC01C5010E94F192F101808114
:1042D0009181892B11F00C949C17D5014D915D9122
:1042E0006D917C91C951DA4F4883C75ED540C85162
:1042F000DA4F5883C85ED540C751DA4F6883C95E2C
:10430000D540CA51DA4F7883C65ED5400E948D6B86
:10431000C951DA4F4881C75ED540C851DA4F58813C
:10432000C85ED540C751DA4F6881C95ED540CA51D1
:10433000DA4F7881C65ED5400E94956A19820E9444
:1043400022A80C940C16D801CD907D01D12C0E948E
:10435000B3A781019601A701BC01C5010E94F1929A
:10436000F10180819181892B11F00C949C176201DD
:10437000FFEFCF1ADF0AD50111963C9111971296E3
:104380008D919D910D90BC91A02DF5010681E78046
:104390004085518562857385C054DA4F48835983BF
:1043A0006A837B83C05CD5401485F5844685578538
:1043B00060897189C454DA4F488359836A837B8347
:1043C000CC5BD540208121118FC39E012F5F3F4FD1
:1043D0005901002369F1D401EE2009F435C59996FD
:1043E0001D921D921D921C929C97C054DA4F2881F9
:1043F00039814A815B81C05CD5405D962D933D93A8
:104400004D935C93909781E051968C9388E491E171
:104410009A8389839C828B820E945D4424E630E0EB
:1044200040E050E0B5010E94F544F401968B858B85
:10443000112371F0D401F11021C557960D911C91F3
:1044400058970E945D44B8010E94F443F401128A17
:1044500019820E942BA80C946F17D801CD907D0172
:10446000D12C0E94A1A781019601A701BC01C50121
:104470000E94F192F10180819181892B11F00C94BD
:104480009C170E944432DC0111964C9111971296B0
:104490002C91129713963C91822F90E0A0E0B0E00F
:1044A000BA2FA92F982F8827A42B832B89839A832F
:1044B000AB83BC830E9419A80C940C16D801CD9034
:1044C0007D01D12C0E94BCA781019601A701BC01EE
:1044D000C5010E94F192F10180819181892B11F037
:1044E0000C949C170E94CA6960E070E00E94B56954
:1044F0006A837B838C839D830E94CA6961E070E03C
:104500000E94B5696E837F83888799870E94CA69F4
:1045100062E070E00E94B5696A877B878C879D871F
:1045200083E089830E9434A80C940C16C553DA4F9B
:1045300048805980CB5CD540C353DA4F28803980FE
:10454000CD5CD540C153DA4FA880B980CF5CD5404F
:1045500019820E9473A87101820120E830E0CB52D9
:10456000DA4F48815981C55DD540BC01C5010E9423
:10457000AF920C949C176201FFEFCF1ADF0A0E94E2
:104580005D448091270290912802A0912902B09168
:104590002A0289839A83AB83BC837E0126E0E20EE4
:1045A000F11C00E010E00E94594CB8010E94AD459A
:1045B000D7016D937D938D939D937D010F5F1F4F69
:1045C0000330110581F783E08D830E9464A80C9469
:1045D0005919892B11F00C94A718D3011696FC9247
:1045E000EE9215970C94A7180E947257B8010E947A
:1045F000B5530E94725740E050E0B8010E945453F6
:104600007ECDF601EE0FFF1FEE0FFF1FC454DA4FF1
:1046100068807980CC5BD540E60DF71D45805680DB
:10462000678070840E94CA69A3019201B8010E9448
:10463000A7680E9472579801220F331F820F931FA1
:10464000DC018D919C91892B31F1C651DA4F288381
:10465000CA5ED540CA51DA4F3883C65ED5400E9443
:104660007257C651DA4F2881CA5ED540CA51DA4F17
:104670003881C65ED540820F931FFC01A081B181B5
:10468000ED91FC9111970484F585E02D23E0E23053
:10469000F20709F01BC53FEFC31AD30AD2CAF601CD
:1046A000EE0FFF1FEE0FFF1FC054DA4F68807980B6
:1046B000C05CD540E60DF71D45805680678070844C
:1046C0000E94CA69A3019201B8010E94EF680E948A
:1046D00072579801220F331F820F931FDC018D91B7
:1046E0009C91892B31F1C651DA4F2883CA5ED5409F
:1046F000CA51DA4F3883C65ED5400E947257C65100
:10470000DA4F2881CA5ED540CA51DA4F3881C65E79
:10471000D540820F931FFC01A081B181ED91FC91E6
:1047200011970088F189E02D23E0E430F20709F0C9
:10473000B9C43FEFC31AD30A0C94DB16F501EE0F90
:10474000FF1FEE0FFF1FB2EB8B2EB4E09B2E8C0EE3
:104750009D1EE80DF91D658076800E94CA69A3013F
:10476000B8010E9487690E9472574801880C991C01
:10477000880D991DDC018D919C91892B91F00E94EF
:104780007257880D991DFC01A081B181ED91FC91BA
:104790001197008CF18DE02D23E0E830F20709F04D
:1047A0007DC43FEFA31AB30A38C9F601EE0FFF1F0D
:1047B000EE0FFF1FBFE06B2E772473946C0E7D1EEF
:1047C000E60DF71D45805680678070840E94CA6997
:1047D000A3019201B8010E9461690E947257980179
:1047E000220F331F820F931FDC018D919C91892B27
:1047F00031F1C651DA4F2883CA5ED540CA51DA4F2B
:104800003883C65ED5400E947257C651DA4F288160
:10481000CA5ED540CA51DA4F3881C65ED540820F94
:10482000931FFC01A081B181ED91FC911197068845
:10483000F789E02D23E0E730F20709F02AC43FEFC3
:10484000C31AD30A0C94BD15F601EE0FFF1FEE0F2D
:10485000FF1FB9E16B2EB2E07B2E6C0E7D1EE60DC4
:10486000F71D45805680678070840E94CA69A30145
:104870009201B8010E9415690E9472579801220F97
:10488000331F820F931FDC018D919C91892B31F195
:10489000C651DA4F2883CA5ED540CA51DA4F3883F1
:1048A000C65ED5400E947257C651DA4F2881CA5E53
:1048B000D540CA51DA4F3881C65ED540820F931F6A
:1048C000FC01A081B181ED91FC9111970288F389DF
:1048D000E02D23E0E530F20709F0E9C33FEFC31A0A
:1048E000D30A0C943215F601EE0FFF1FEE0FFF1FD7
:1048F000CC53DA4F68807980C45CD540E60DF71D53
:1049000045805680678070840E94CA69A301920125
:10491000B8010E94C9680E9472579801220F331F84
:10492000820F931FDC018D919C91892B31F1C6512F
:10493000DA4F2883CA5ED540CA51DA4F3883C65E43
:10494000D5400E947257C651DA4F2881CA5ED540C1
:10495000CA51DA4F3881C65ED540820F931FFC01E1
:10496000A081B181ED91FC9111970684F785E02D2E
:1049700023E0E330F20709F09FC33FEFC31AD30AE5
:10498000B3CAF601EE0FFF1FEE0FFF1F7DE2672E89
:1049900074E0772E6C0E7D1EE60DF71D4580568067
:1049A000678070840E94CA69A3019201B8010E94C5
:1049B000A4690E9472579801220F331F820F931F20
:1049C000DC018D919C91892B31F1C651DA4F2883FE
:1049D000CA5ED540CA51DA4F3883C65ED5400E94C0
:1049E0007257C651DA4F2881CA5ED540CA51DA4F94
:1049F0003881C65ED540820F931FFC01A081B18132
:104A0000ED91FC911197028CF38DE02D23E0E930BC
:104A1000F20709F056C33FEFC31AD30A34CCF601AC
:104A2000EE0FFF1FEE0FFF1F74E9672E77247394BC
:104A30006C0E7D1EE60DF71D4580568067807084E4
:104A40000E94CA69A3019201B8010E943B690E94B9
:104A500072579801220F331F820F931FDC018D9133
:104A60009C91892B31F1C651DA4F2883CA5ED5401B
:104A7000CA51DA4F3883C65ED5400E947257C6517C
:104A8000DA4F2881CA5ED540CA51DA4F3881C65EF6
:104A9000D540820F931FFC01A081B181ED91FC9163
:104AA00011970488F589E02D23E0E630F20709F03C
:104AB00012C33FEFC31AD30AE2CA82E090E0F401C6
:104AC000918380830C94061CF301968285820C945A
:104AD000A718D30116961C921E9215970C94A7182E
:104AE00087E0E82EF12C00CBF401332309F4B8C1A0
:104AF00015A216A217A210A6818F928FA38FB48F32
:104B000081E0808B83EE91E19A8389839C828B8202
:104B10000E945D4424E630E040E050E0BE016F5F5B
:104B20007F4F5B010E94F544D40154969C938E9371
:104B300053974FCC019711F00C94881CD2018D91A2
:104B40009C918230910509F464C28330910509F487
:104B50002DC2019711F00C94881CF601208131813F
:104B600042815381C651DA4F2883CA5ED540CA516B
:104B7000DA4F3883C65ED540C951DA4F4883C75EE5
:104B8000D540C851DA4F5883C85ED5400E9472574D
:104B9000C651DA4F2881CA5ED540CA51DA4F3881F2
:104BA000C65ED540C951DA4F4881C75ED540C8516D
:104BB000DA4F5881C85ED540B3010E9427540C9447
:104BC000881C0E9472579301220F331F820F931F7C
:104BD000DC010D911C910115110511F40C94901C30
:104BE000F801E080F18020E030E04AE754E4D501AC
:104BF0006D917D918D919C910E9424AF0E94DCADBE
:104C0000AB01BC01D7019296ED91FC919397C8013D
:104C10000995C653DA4FB881CA5CD540BB2311F45D
:104C20000C94901CF10180819181D801ED91FC914F
:104C300004A0F5A1E02D8130910509F424C202976A
:104C400009F41BC261E070E0C80109950C94901C46
:104C500080E090E0F1C889E593E19A8389839C82A2
:104C60008B820E947257FE0131965F01BF010E9444
:104C7000BB530C94DE178EE19FE09A8389839C825C
:104C80008B820E94374EFE0131965F01AF0160E0DA
:104C900070E00E949F4D80E69DE09A8389839C820C
:104CA0008B820E94374EA50161E070E00E949F4D0B
:104CB0008FE19DE09A8389839C828B820E94374E8C
:104CC000A50162E070E00E949F4D0C946C17FD9668
:104CD0004083518362837383369681E080838FE5BE
:104CE0009BE09A8389839C828B820E945D4424E6A8
:104CF00030E040E050E0BE016F5F7F4F5B010E94FB
:104D0000F544F401EF5BFF4F9183808332CAD201F7
:104D10008D919C918130910509F4DAC0029711F0D0
:104D20000C94881CD6012D913D914D915C91CF52F0
:104D3000DA4F288339834A835B83C15DD5400E9463
:104D4000594CB3010E94AD459B01AC01CF52DA4FE3
:104D5000688179818A819B81C15DD5400E94F2ACD6
:104D60009B01AC01C651DA4F2883CA5ED540CA51B7
:104D7000DA4F3883C65ED540C951DA4F4883C75EE3
:104D8000D540C851DA4F5883C85ED5400E9472574B
:104D9000C651DA4F2881CA5ED540CA51DA4F3881F0
:104DA000C65ED540C951DA4F4881C75ED540C8516B
:104DB000DA4F5881C85ED540B3010E94CF560C949B
:104DC000881CD2018D919C918230910509F4BAC062
:104DD0008330910509F482C0019711F00C94881C6E
:104DE000F6012081318142815381C651DA4F2883F7
:104DF000CA5ED540CA51DA4F3883C65ED540C95124
:104E0000DA4F4883C75ED540C851DA4F5883C85E31
:104E1000D5400E947257C651DA4F2881CA5ED540EC
:104E2000CA51DA4F3881C65ED540C951DA4F488140
:104E3000C75ED540C851DA4F5881C85ED540B3012E
:104E40000E94CA540C94881C55966D907C9056977D
:104E50000E945D44B3010E94F443F401118AE8CA40
:104E6000A388B4880E945D44B5010E94F443D40134
:104E700050961C92FE0131965F01ABCA9D961D9221
:104E80001D921D921C92D097C454DA4F288139810B
:104E90004A815B81CC5BD54091962D933D934D9398
:104EA0005C93949781E052968C938DEA90E19A837B
:104EB00089839C828B820E945D4424E630E040E03E
:104EC00050E0B5010E94F544F401908F878BC0CA71
:104ED000F601208131814281538144CFF601208146
:104EE000318142815381C651DA4F2883CA5ED54051
:104EF000CA51DA4F3883C65ED540C951DA4F48836C
:104F0000C75ED540C851DA4F5883C85ED5400E946D
:104F10007257C651DA4F2881CA5ED540CA51DA4F5E
:104F20003881C65ED540C951DA4F4881C75ED54049
:104F3000C851DA4F5881C85ED540B3010E949855D8
:104F40000C94881CD6012D913D914D915C91C651D8
:104F5000DA4F2883CA5ED540CA51DA4F3883C65E1D
:104F6000D540C951DA4F4883C75ED540C851DA4FA2
:104F70005883C85ED5400E947257C651DA4F2881C7
:104F8000CA5ED540CA51DA4F3881C65ED540C95194
:104F9000DA4F4881C75ED540C851DA4F5881C85EA4
:104FA000D540B3010E946D550C94881C0E94725725
:104FB000B3010E94B553F6016081718182819381B2
:104FC0000E94D5ADAB01BC01C951DA4F4883C75E21
:104FD000D540C851DA4F5883C85ED540C751DA4F23
:104FE0006883C95ED540CA51DA4F7883C65ED54022
:104FF0000E947257C951DA4F4881C75ED540C851E7
:10500000DA4F5881C85ED540B3010E9454530C94C6
:10501000881CD6012D913D914D915C91C651DA4F7E
:105020002883CA5ED540CA51DA4F3883C65ED54060
:10503000C951DA4F4883C75ED540C851DA4F58830B
:10504000C85ED5400E947257C651DA4F2881CA5EA9
:10505000D540CA51DA4F3881C65ED540C951DA4FC2
:105060004881C75ED540C851DA4F5881C85ED540E7
:10507000B3010E949F540C94881C60E070E0C8014A
:1050800009950C94901C62E070E0C80109950C949D
:10509000901CB301A201CD010995D1CBB301CD0183
:1050A00009957FCBB301A201CD01099542CBB30194
:1050B000A201CD01099512CCB301A201CD01099540
:1050C0005CCCB301A201CD010995A5CCB301A2012D
:1050D000CD010995E0CAB301A201CD010995E9CC42
:1050E0002F923F924F925F926F927F928F929F92F8
:1050F000AF92BF92CF92DF92EF92FF920F931F93E6
:10510000CF93DF93CDB7DEB7C25AD4400FB6F89431
:10511000DEBF0FBECDBF4C018B01DB011A962C9177
:105120001A9727FD89C1243009F4A0C2FB018589A3
:1051300087FD1AC0CE55DB4F0FB6F894DEBF0FBE09
:10514000CDBFDF91CF911F910F91FF90EF90DF9036
:10515000CF90BF90AF909F908F907F906F905F9017
:105160004F903F902F9008957E01FAE1EF1AFCEFE7
:10517000FF0A86E8D7011D928A95E9F7FB01608155
:105180007181218D822F90E09595879595958795D2
:105190008370922F9295969596959370823009F42C
:1051A00037C1833009F418C423E030E0923009F4A9
:1051B00034C1933009F417C440E050E068507109DD
:1051C000621B730B641B750BA801435E5F4F82303B
:1051D00009F40EC4833009F012C42AE030E09230A2
:1051E00009F409C4933009F001C4C9010896840F79
:1051F000951F02960E942396C657DB4F2883CA58F4
:10520000D440C557DB4F3883CB58D440C457DB4F0D
:105210004883CC58D440C357DB4F5883CD58D44033
:10522000C257DB4F6883CE58D440C157DB4F7883D9
:10523000CF58D440C057DB4F8883C059D440CF5695
:10524000DB4F9883C159D440A70167E673E0CE01D4
:1052500086579B4F0E94319D882309F4B5C3D7011F
:1052600011964D915D916D917C9114978BE0F801B1
:105270003D96DE01A958BB4F01900D928A95E1F74A
:105280003E01BCEC6B1ABDEF7B0A8BE0FE01E958D6
:10529000FB4FD30101900D928A95E1F7DD24D39461
:1052A000F301D3864487558766877787F80182851F
:1052B000882309F4C6C3823009F03CCFF401808111
:1052C00081116DC58E010F5F1F4F89E2D8011D92BC
:1052D0008A95E9F7F701658170E0C70106960E949B
:1052E0002396CE57DB4F2883C258D440CD57DB4F8F
:1052F0003883C358D440CC57DB4F4883C458D4407C
:10530000CB57DB4F5883C558D440CA57DB4F68830F
:10531000C658D440C957DB4F7883C758D440C857C4
:10532000DB4F8883C858D440C757DB4F9883C95890
:10533000D440A80167E973E0CE018E579B4F0E94CD
:10534000319D882309F440C38981882309F480C5ED
:105350008E010E5F1F4FE12CF12C0BC0FFEFEF1AF7
:10536000FF0A0B5F1F4F298130E0E216F3060CF0B5
:10537000E1CE0E94A143BC016354764FC8010E9454
:10538000DAB2892B59F78BE0F301DE01A459BB4F48
:1053900001900D928A95E1F70E94A143C459DB4F19
:1053A000C880CC56D440C359DB4FD880CD56D440AA
:1053B000C259DB4FE880CE56D440C159DB4FF8804C
:1053C000CF56D440C059DB4F0881C057D440CF5886
:1053D000DB4F1881C157D440CE58DB4F2881C257CC
:1053E000D440CD58DB4F3881C357D440CC58DB4F25
:1053F0004881C457D440CB58DB4F5881C557D4405F
:10540000CA58DB4F6881C657D4400E945F4092CE95
:10541000923009F0F7C225E030E06A507109621B52
:10542000730BA801435E5F4F823009F401C38330E0
:1054300009F0E4C292E0D1CE5596DC9048E050E00D
:10544000635F7F4FCE018A519C4FCF55DB4F28833E
:10545000C15AD4400E94EAB27E01B9E3EB1ABDEF13
:10546000FB0A83E9F70111928A95E9F785E0FE01CD
:10547000EA51FC4FD70101900D928A95E1F7CF5583
:10548000DB4F2881C15AD44080E8820F90E0A0E031
:10549000B0E0F70185839683A783B0878D2D90E0D8
:1054A000A0E0B0E081879287A387B487D8016D918F
:1054B0007C91119759962C91822F90E09595879524
:1054C000959587958370922F929596959695937062
:1054D000823009F44FC3833009F49FC223E030E0E7
:1054E000923009F455C3933009F49FC240E050E074
:1054F00068507109621B730B641B750B035E1F4FB1
:10550000823009F45CC3833009F056C34AE050E0AE
:10551000923009F44CC3933009F047C39A01285FD5
:105520003F4FC801820F931F02960E942396C65ACE
:10553000DC4F2883CA55D340C55ADC4F3883CB553E
:10554000D340C45ADC4F4883CC55D340C35ADC4FB8
:105550005883CD55D340C25ADC4F6883CE55D340D3
:10556000C15ADC4F7883CF55D340C05ADC4F888373
:10557000C056D340CF59DC4F9883C156D340A701C2
:10558000435F5F4F67E673E0CE01865A9C4F0E94EF
:10559000319D882309F418C2F401C388D4883E01E0
:1055A000FCEC6F1AFDEF7F0A83E9F701D30101904C
:1055B0000D928A95E1F79E012F5F3F4F590182E3DB
:1055C00091E0D901FC011D923197E9F781E090E06B
:1055D0009A838983C355DF4F8883CD5AD040ECEB43
:1055E000F4E012E720E030E0A90101C01191A5E646
:1055F000B0E00E9477AC9B01AC01210F311D411D31
:10560000511D84E0EE3CF80789F7C255DF4F28832F
:1056100039834A835B83CE5AD040C459DB4F198209
:105620001882CC56D4400E94B2A8DE01A459BB4FC8
:105630007D018E010E541F4F20E830E0AE014D5425
:105640005F4FBC01C3010E94AF92C459DB4F8881F8
:105650009981CC56D440892B09F4B4C20E944432BB
:105660004FEF50E06FEF0E94AF3164CD0E949989F7
:10567000DC01ED91FC910190F081E02DB8010995DC
:1056800059CDD4011196BC91CB56DB4FB883C55987
:10569000D440F401F381CA56DB4FF883C659D44095
:1056A000D4011496BC91C956DB4FB883C759D44076
:1056B000F401A281B0E0F3013080F281C856DB4FE3
:1056C000F883C859D440F301F381C756DB4FF88300
:1056D000C959D440F3018181E82FF0E0C956DB4F6E
:1056E0002881C759D44030E040E050E060E070E0ED
:1056F00080E090E008E10E9482ACB32E6A01E62EC1
:10570000CB56DB4F3881C559D440322BCC56DB4FBA
:105710003883C459D4407264F72E8265482E192FFD
:105720001264CA56DB4F2881C659D44030E040E0AD
:1057300050E060E070E080E090E000E10E9482AC28
:105740002B2C232AC42AC656DB4FC882CA59D44000
:10575000D52AC556DB4FD882CB59D440E62AC45649
:10576000DB4FE882CC59D440F72AC356DB4FF8828E
:10577000CD59D440482A512E592A9A2F88275C01A6
:10578000CC56DB4F4881C459D440422BCC56DB4F1A
:105790004883C459D4402B28C756DB4F2881C959A8
:1057A000D44030E040E050E060E070E080E090E025
:1057B00008E10E9482ACB32E6A01162F2329C2563B
:1057C000DB4F2883CE59D4407264F72E8265C156D0
:1057D000DB4F8883CF59D4409264C056DB4F988307
:1057E000C05AD440C856DB4F2881C859D44030E055
:1057F00040E050E060E070E080E090E000E10E9476
:1058000082ACA22EB32ACE55DB4FB882C25AD44006
:10581000C42AD52AE12EE62AF72AC156DB4F088191
:10582000CF59D440082BC056DB4F1881C05AD44002
:10583000192B5E2F44279A01C256DB4FB880CE59F0
:10584000D440AB28CE55DB4FB880C25AD440B32ADF
:10585000CC56DB4F2881C459D440322DC656DB4F7D
:105860004881CA59D440C556DB4F5881CB59D440E2
:10587000C456DB4F6881CC59D440C356DB4F788186
:10588000CD59D440C2010E94B9ACA1F0CB56DB4F38
:105890002881C559D440B22BF329AE17BF0709F4AC
:1058A00024C3B4016F5F7F4FC3010E94DAB2892B1A
:1058B00009F02AC2C25ADC4F88819981CE55D34063
:1058C000019709F483C2D40151962D903C905297D0
:1058D0008CE8FE01E65AFC4FDE01A953BD4F019052
:1058E0000D928A95E1F7FE0131965F0182E391E026
:1058F000DF01FC011D923197E9F7F1E0C855DF4F58
:10590000F883C85AD040C953DD4F88819981AA8154
:10591000BB81C75CD240C755DF4F88839983AA8378
:10592000BB83C95AD040FB83C553DD4F8880998023
:10593000CB5CD24021E08216910409F421C232E00E
:105940008316910409F40CC2892809F4EBC182E0A2
:1059500090E09D838C83F1E0FF8F83E090E099A33A
:1059600088A39E0124593B4F2901CE018D5C9E4F97
:105970003C010E94AC9272018E010D5C1D4F20E033
:1059800031E0A301BC01C5010E94AF92D2018D910B
:105990009C91892BC9F4CD5CDD4F4881C353D24023
:1059A00050E0D101ED91FC91309709F4C3CBB301E4
:1059B000D10112968D919C9113970995F2018081E6
:1059C0009181892B09F4B6CB0E9444324FEF50E00D
:1059D00060E00E94AF31AECB923069F1933009F0B4
:1059E00029C12BE030E048E050E0E8CBC901FFCB13
:1059F00024E030E0F4CBC9010296F9CB92E022E03A
:105A000030E0EDCB933009F012C165517109A80166
:105A1000435E5F4F24E030E0E8CB923009F497C258
:105A2000933009F076C12BE030E048E050E060CDE3
:105A300086E090E0DCCB65517109A801435E5F4FC1
:105A4000CCCBD7011596AC90B12C0E94A992A7019E
:105A50004A5F5F4F8E010E561B4F9501BC01CE0170
:105A6000865A9C4F0E94F192CE56DB4F88819981D5
:105A7000C259D440892B09F0A7CFF401808181114C
:105A8000DCC0C25ADC4F88819981CE55D340892B26
:105A900009F404C1F3018385D4011C969C919817E5
:105AA00009F41FC1F401A188B288C65ADC4F4881AD
:105AB00059816A817B81CA55D3409E012F5F3F4F38
:105AC000690182E391E0D901FC011D923197E9F768
:105AD00091E09B8322E030E03D832C839F8F25E083
